{
  "abi": [
    {
      "inputs": [],
      "stateMutability": "nonpayable",
      "type": "constructor"
    },
    {
      "inputs": [
        {
          "internalType": "address",
          "name": "tuinToken",
          "type": "address"
        },
        {
          "internalType": "address",
          "name": "_to",
          "type": "address"
        },
        {
          "internalType": "uint256",
          "name": "_amount",
          "type": "uint256"
        }
      ],
      "name": "newMint",
      "outputs": [
        {
          "internalType": "bool",
          "name": "",
          "type": "bool"
        }
      ],
      "stateMutability": "nonpayable",
      "type": "function"
    },
    {
      "inputs": [],
      "name": "owner",
      "outputs": [
        {
          "internalType": "address",
          "name": "",
          "type": "address"
        }
      ],
      "stateMutability": "view",
      "type": "function"
    },
    {
      "inputs": [
        {
          "internalType": "address",
          "name": "tuinPool",
          "type": "address"
        },
        {
          "internalType": "address",
          "name": "_yieldAddress",
          "type": "address"
        },
        {
          "internalType": "uint256",
          "name": "amountIn",
          "type": "uint256"
        }
      ],
      "name": "putDepositYield",
      "outputs": [
        {
          "internalType": "bool",
          "name": "",
          "type": "bool"
        }
      ],
      "stateMutability": "nonpayable",
      "type": "function"
    },
    {
      "inputs": [
        {
          "internalType": "address",
          "name": "tuinPool",
          "type": "address"
        },
        {
          "internalType": "address",
          "name": "_token",
          "type": "address"
        },
        {
          "internalType": "uint8",
          "name": "_funcNo",
          "type": "uint8"
        }
      ],
      "name": "setAcceptedToken",
      "outputs": [
        {
          "internalType": "bool",
          "name": "",
          "type": "bool"
        }
      ],
      "stateMutability": "nonpayable",
      "type": "function"
    },
    {
      "inputs": [
        {
          "internalType": "address",
          "name": "tuinPool",
          "type": "address"
        },
        {
          "internalType": "bool",
          "name": "_approved",
          "type": "bool"
        }
      ],
      "name": "setApproveYield",
      "outputs": [
        {
          "internalType": "bool",
          "name": "",
          "type": "bool"
        }
      ],
      "stateMutability": "nonpayable",
      "type": "function"
    },
    {
      "inputs": [
        {
          "internalType": "address",
          "name": "tuinPool",
          "type": "address"
        },
        {
          "internalType": "uint256",
          "name": "_newRate",
          "type": "uint256"
        }
      ],
      "name": "setExchangeRateTuin",
      "outputs": [
        {
          "internalType": "bool",
          "name": "",
          "type": "bool"
        }
      ],
      "stateMutability": "nonpayable",
      "type": "function"
    },
    {
      "inputs": [
        {
          "internalType": "address",
          "name": "tuinPool",
          "type": "address"
        },
        {
          "internalType": "uint256",
          "name": "_newRate",
          "type": "uint256"
        }
      ],
      "name": "setExchangeRateUsd",
      "outputs": [
        {
          "internalType": "bool",
          "name": "",
          "type": "bool"
        }
      ],
      "stateMutability": "nonpayable",
      "type": "function"
    },
    {
      "inputs": [
        {
          "internalType": "address",
          "name": "tuinToken",
          "type": "address"
        },
        {
          "internalType": "uint256",
          "name": "_newMaxSupply",
          "type": "uint256"
        }
      ],
      "name": "setNewSupply",
      "outputs": [
        {
          "internalType": "bool",
          "name": "",
          "type": "bool"
        }
      ],
      "stateMutability": "nonpayable",
      "type": "function"
    },
    {
      "inputs": [
        {
          "internalType": "address",
          "name": "_newOwner",
          "type": "address"
        }
      ],
      "name": "setOwner",
      "outputs": [],
      "stateMutability": "nonpayable",
      "type": "function"
    },
    {
      "inputs": [
        {
          "internalType": "address",
          "name": "tuinPool",
          "type": "address"
        },
        {
          "internalType": "bool",
          "name": "_paused",
          "type": "bool"
        }
      ],
      "name": "setPaused",
      "outputs": [
        {
          "internalType": "bool",
          "name": "",
          "type": "bool"
        }
      ],
      "stateMutability": "nonpayable",
      "type": "function"
    },
    {
      "inputs": [
        {
          "internalType": "address",
          "name": "tuinPool",
          "type": "address"
        },
        {
          "internalType": "string",
          "name": "_date",
          "type": "string"
        }
      ],
      "name": "setRedeemableDate",
      "outputs": [
        {
          "internalType": "bool",
          "name": "",
          "type": "bool"
        }
      ],
      "stateMutability": "nonpayable",
      "type": "function"
    },
    {
      "inputs": [
        {
          "internalType": "address",
          "name": "tuinPool",
          "type": "address"
        },
        {
          "internalType": "address",
          "name": "_newOwner",
          "type": "address"
        }
      ],
      "name": "setTUINPoolOwner",
      "outputs": [
        {
          "internalType": "bool",
          "name": "",
          "type": "bool"
        }
      ],
      "stateMutability": "nonpayable",
      "type": "function"
    },
    {
      "inputs": [
        {
          "internalType": "address",
          "name": "tuinToken",
          "type": "address"
        },
        {
          "internalType": "address",
          "name": "_newOwner",
          "type": "address"
        }
      ],
      "name": "setTuinOwner",
      "outputs": [],
      "stateMutability": "nonpayable",
      "type": "function"
    },
    {
      "inputs": [
        {
          "internalType": "address",
          "name": "tuinToken",
          "type": "address"
        },
        {
          "internalType": "address",
          "name": "_newPool",
          "type": "address"
        }
      ],
      "name": "setTuinPoolAddress",
      "outputs": [],
      "stateMutability": "nonpayable",
      "type": "function"
    },
    {
      "inputs": [
        {
          "internalType": "address",
          "name": "tuinPool",
          "type": "address"
        },
        {
          "internalType": "address",
          "name": "_token",
          "type": "address"
        }
      ],
      "name": "setYieldToken",
      "outputs": [
        {
          "internalType": "bool",
          "name": "",
          "type": "bool"
        }
      ],
      "stateMutability": "nonpayable",
      "type": "function"
    },
    {
      "inputs": [
        {
          "internalType": "address",
          "name": "tuinPool",
          "type": "address"
        },
        {
          "internalType": "address",
          "name": "_tokenIn",
          "type": "address"
        },
        {
          "internalType": "address",
          "name": "_to",
          "type": "address"
        },
        {
          "internalType": "uint256",
          "name": "_amountOut",
          "type": "uint256"
        }
      ],
      "name": "withdraw",
      "outputs": [
        {
          "internalType": "bool",
          "name": "",
          "type": "bool"
        }
      ],
      "stateMutability": "nonpayable",
      "type": "function"
    }
  ],
  "bytecode": {
    "object": "0x608060405234801561001057600080fd5b50600080546001600160a01b03191633179055611aa5806100326000396000f3fe608060405234801561001057600080fd5b50600436106101005760003560e01c806388844bb911610097578063c37f27bc11610066578063c37f27bc14610218578063dce6b40b1461022b578063ded034d91461023e578063ecbf4b2c1461025157600080fd5b806388844bb9146101b457806389eba0d2146101c75780638da5cb5b146101da578063ad9af6431461020557600080fd5b806329d0a02e116100d357806329d0a02e146101685780632a57c13b1461017b5780636c83dd3d1461018e5780636cc37140146101a157600080fd5b80630a47dd35146101055780630b620b811461012d57806313af403514610140578063228f8a5e14610155575b600080fd5b61011861011336600461178d565b610264565b60405190151581526020015b60405180910390f35b61011861013b3660046117c9565b610576565b61015361014e366004611814565b61069f565b005b61011861016336600461184c565b610722565b61011861017636600461190e565b61083c565b61011861018936600461194a565b610959565b61011861019c366004611997565b610c9a565b6101186101af36600461178d565b610da7565b6101536101c2366004611997565b610eb9565b6101186101d536600461190e565b610fcb565b6000546101ed906001600160a01b031681565b6040516001600160a01b039091168152602001610124565b610118610213366004611997565b6110db565b6101186102263660046119ca565b6111e8565b6101186102393660046119ca565b6114d8565b61011861024c3660046119ca565b6115f8565b61015361025f366004611997565b611665565b60408051336024820152306044820152606480820184905282518083039091018152608490910182526020810180516001600160e01b03166323b872dd60e01b1790529051600091829182916001600160a01b038716916102c59190611a20565b6000604051808303816000865af19150503d8060008114610302576040519150601f19603f3d011682016040523d82523d6000602084013e610307565b606091505b509150915081801561031b57506020815110155b61036c5760405162461bcd60e51b815260206004820152601d60248201527f5969656c643a205452414e5346455246524f4d5f494e5f4641494c454400000060448201526064015b60405180910390fd5b604080516001600160a01b038881166024830152604480830188905283518084039091018152606490920183526020820180516001600160e01b031663095ea7b360e01b17905291516000928392908916916103c89190611a20565b6000604051808303816000865af19150503d8060008114610405576040519150601f19603f3d011682016040523d82523d6000602084013e61040a565b606091505b509150915081801561041e57506020815110155b61046a5760405162461bcd60e51b815260206004820152601d60248201527f5969656c643a205452414e5346455246524f4d5f494e5f4641494c45440000006044820152606401610363565b6040516001600160a01b0388811660248301526044820188905260009182918b169060640160408051601f198184030181529181526020820180516001600160e01b031663f28e79a360e01b179052516104c49190611a20565b6000604051808303816000865af19150503d8060008114610501576040519150601f19603f3d011682016040523d82523d6000602084013e610506565b606091505b509150915081801561051a57506020815110155b6105665760405162461bcd60e51b815260206004820152601c60248201527f4572723a204661696c656420546f204465706f736974205969656c64000000006044820152606401610363565b5060019998505050505050505050565b600080546001600160a01b0316331461058e57600080fd5b6040516001600160a01b038581166024830152848116604483015260648201849052600091829188169060840160408051601f198184030181529181526020820180516001600160e01b0316633b4846cd60e11b179052516105f09190611a20565b6000604051808303816000865af19150503d806000811461062d576040519150601f19603f3d011682016040523d82523d6000602084013e610632565b606091505b509150915081801561064657506020815110155b6106925760405162461bcd60e51b815260206004820152601760248201527f4572723a204661696c656420546f2057697468647261770000000000000000006044820152606401610363565b5060019695505050505050565b6000546001600160a01b031633146106b657600080fd5b6001600160a01b03811630036107005760405162461bcd60e51b815260206004820152600f60248201526e31b0b73a1037bbb71034ba39b2b63360891b6044820152606401610363565b600080546001600160a01b0319166001600160a01b0392909216919091179055565b600080546001600160a01b0316331461073a57600080fd5b600080846001600160a01b0316846040516024016107589190611a3c565b60408051601f198184030181529181526020820180516001600160e01b0316633ca4ecab60e21b1790525161078d9190611a20565b6000604051808303816000865af19150503d80600081146107ca576040519150601f19603f3d011682016040523d82523d6000602084013e6107cf565b606091505b50915091508180156107e357506020815110155b61082f5760405162461bcd60e51b815260206004820152601d60248201527f6661696c656420746f207365742072656465656d61626c6520646174650000006044820152606401610363565b6001925050505b92915050565b600080546001600160a01b0316331461085457600080fd5b600080846001600160a01b031684604051602401610876911515815260200190565b60408051601f198184030181529181526020820180516001600160e01b031663ee72aef360e01b179052516108ab9190611a20565b6000604051808303816000865af19150503d80600081146108e8576040519150601f19603f3d011682016040523d82523d6000602084013e6108ed565b606091505b509150915081801561090157506020815110155b61082f5760405162461bcd60e51b8152602060048201526024808201527f6661696c656420746f207365742077686574686572207969656c6420617070726044820152631bdd995960e21b6064820152608401610363565b600080546001600160a01b0316331461097157600080fd5b60018260ff161080610986575060038260ff16115b156109e15760405162461bcd60e51b815260206004820152602560248201527f4552524f523a20416363657074656420746f6b656e2069732065697468657220604482015264312c322c3360d81b6064820152608401610363565b604080518082018252601a8082527f7365744163636570746564546f6b656e31286164647265737329000000000000602080840191909152835180850185528281527f7365744163636570746564546f6b656e322861646472657373290000000000008183015284518086019095529184527f7365744163636570746564546f6b656e332861646472657373290000000000009084015290916000606060ff8716600103610b44576040516001600160a01b0389811660248301528a169086906044015b60408051601f198184030181529082905291610ac091611a20565b60408051918290039091206020830180516001600160e01b03166001600160e01b031990921691909117905251610af79190611a20565b6000604051808303816000865af19150503d8060008114610b34576040519150601f19603f3d011682016040523d82523d6000602084013e610b39565b606091505b509092509050610c30565b8660ff16600203610b6f576040516001600160a01b0389811660248301528a16908590604401610aa5565b8660ff16600303610c30576040516001600160a01b0389811660248301528a1690849060440160408051601f198184030181529082905291610bb091611a20565b60408051918290039091206020830180516001600160e01b03166001600160e01b031990921691909117905251610be79190611a20565b6000604051808303816000865af19150503d8060008114610c24576040519150601f19603f3d011682016040523d82523d6000602084013e610c29565b606091505b5090925090505b818015610c3f57506020815110155b610c8b5760405162461bcd60e51b815260206004820152601c60248201527f6661696c656420746f2073657420616363657074656420746f6b656e000000006044820152606401610363565b50600198975050505050505050565b600080546001600160a01b03163314610cb257600080fd5b6040516001600160a01b038381166024830152600091829186169060440160408051601f198184030181529181526020820180516001600160e01b03166323ffce8560e01b17905251610d059190611a20565b6000604051808303816000865af19150503d8060008114610d42576040519150601f19603f3d011682016040523d82523d6000602084013e610d47565b606091505b5091509150818015610d5b57506020815110155b61082f5760405162461bcd60e51b815260206004820152601b60248201527f6661696c656420746f20736574207969656c64206164647265737300000000006044820152606401610363565b600080546001600160a01b03163314610dbf57600080fd5b6040516001600160a01b03848116602483015260448201849052600091829187169060640160408051601f198184030181529181526020820180516001600160e01b03166340c10f1960e01b17905251610e199190611a20565b6000604051808303816000865af19150503d8060008114610e56576040519150601f19603f3d011682016040523d82523d6000602084013e610e5b565b606091505b5091509150818015610e6f57506020815110155b610eb05760405162461bcd60e51b815260206004820152601260248201527119985a5b1959081d1bc81b995dc81b5a5b9d60721b6044820152606401610363565b50949350505050565b6000546001600160a01b03163314610ed057600080fd5b6040516001600160a01b038281166024830152600091829185169060440160408051601f198184030181529181526020820180516001600160e01b03166313af403560e01b17905251610f239190611a20565b6000604051808303816000865af19150503d8060008114610f60576040519150601f19603f3d011682016040523d82523d6000602084013e610f65565b606091505b5091509150818015610f7957506020815110155b610fc55760405162461bcd60e51b815260206004820152601b60248201527f4572723a206661696c656420746f206368616e6765206f776e657200000000006044820152606401610363565b50505050565b600080546001600160a01b03163314610fe357600080fd5b600080846001600160a01b031684604051602401611005911515815260200190565b60408051601f198184030181529181526020820180516001600160e01b03166305b0e2cf60e21b1790525161103a9190611a20565b6000604051808303816000865af19150503d8060008114611077576040519150601f19603f3d011682016040523d82523d6000602084013e61107c565b606091505b509150915081801561109057506020815110155b6110d35760405162461bcd60e51b815260206004820152601460248201527319985a5b1959081d1bc81c185d5cd9481c1bdbdb60621b6044820152606401610363565b509392505050565b600080546001600160a01b031633146110f357600080fd5b6040516001600160a01b038381166024830152600091829186169060440160408051601f198184030181529181526020820180516001600160e01b03166313af403560e01b179052516111469190611a20565b6000604051808303816000865af19150503d8060008114611183576040519150601f19603f3d011682016040523d82523d6000602084013e611188565b606091505b509150915081801561119c57506020815110155b6110d35760405162461bcd60e51b815260206004820152601b60248201527f6661696c656420746f206368616e676520706f6f6c206f776e657200000000006044820152606401610363565b600080546001600160a01b0316331461120057600080fd5b604080518082018252601a8082527f6368616e6765537570706c794f6e4574682875696e743235362900000000000060208084019190915283518085019094529083527f6368616e6765537570706c794f6e4273632875696e7432353629000000000000908301524691600160ff841614916000916060919084156113ac57886001600160a01b0316828960405160240161129d91815260200190565b60408051601f1981840301815290829052916112b891611a20565b60408051918290039091206020830180516001600160e01b03166001600160e01b0319909216919091179052516112ef9190611a20565b6000604051808303816000865af19150503d806000811461132c576040519150601f19603f3d011682016040523d82523d6000602084013e611331565b606091505b50909450925083801561134657506020835110155b61139e5760405162461bcd60e51b8152602060048201526024808201527f4572723a206661696c656420746f20736574206e657720737570706c79206f6e604482015263040cae8d60e31b6064820152608401610363565b839650505050505050610836565b886001600160a01b031681896040516024016113ca91815260200190565b60408051601f1981840301815290829052916113e591611a20565b60408051918290039091206020830180516001600160e01b03166001600160e01b03199092169190911790525161141c9190611a20565b6000604051808303816000865af19150503d8060008114611459576040519150601f19603f3d011682016040523d82523d6000602084013e61145e565b606091505b50909450925083801561147357506020835110155b6114cb5760405162461bcd60e51b8152602060048201526024808201527f4572723a206661696c656420746f20736574206e657720737570706c79206f6e6044820152632062736360e01b6064820152608401610363565b5091979650505050505050565b600080546001600160a01b031633146114f057600080fd5b600080846001600160a01b03168460405160240161151091815260200190565b60408051601f198184030181529181526020820180516001600160e01b031663aabf8c3b60e01b179052516115459190611a20565b6000604051808303816000865af19150503d8060008114611582576040519150601f19603f3d011682016040523d82523d6000602084013e611587565b606091505b509150915081801561159b57506020815110155b61082f5760405162461bcd60e51b815260206004820152602860248201527f6661696c656420746f2073657420776865746865722065786368616e6765207260448201526730ba32902a2aa4a760c11b6064820152608401610363565b600080546001600160a01b0316331461161057600080fd5b600080846001600160a01b03168460405160240161163091815260200190565b60408051601f198184030181529181526020820180516001600160e01b0316631506c84960e31b179052516115459190611a20565b6000546001600160a01b0316331461167c57600080fd5b6040516001600160a01b038281166024830152600091829185169060440160408051601f198184030181529181526020820180516001600160e01b031663221b8a9560e11b179052516116cf9190611a20565b6000604051808303816000865af19150503d806000811461170c576040519150601f19603f3d011682016040523d82523d6000602084013e611711565b606091505b509150915081801561172557506020815110155b610fc55760405162461bcd60e51b815260206004820152601b60248201527f4572723a206661696c656420746f20736574206e657720706f6f6c00000000006044820152606401610363565b80356001600160a01b038116811461178857600080fd5b919050565b6000806000606084860312156117a257600080fd5b6117ab84611771565b92506117b960208501611771565b9150604084013590509250925092565b600080600080608085870312156117df57600080fd5b6117e885611771565b93506117f660208601611771565b925061180460408601611771565b9396929550929360600135925050565b60006020828403121561182657600080fd5b61182f82611771565b9392505050565b634e487b7160e01b600052604160045260246000fd5b6000806040838503121561185f57600080fd5b61186883611771565b9150602083013567ffffffffffffffff8082111561188557600080fd5b818501915085601f83011261189957600080fd5b8135818111156118ab576118ab611836565b604051601f8201601f19908116603f011681019083821181831017156118d3576118d3611836565b816040528281528860208487010111156118ec57600080fd5b8260208601602083013760006020848301015280955050505050509250929050565b6000806040838503121561192157600080fd5b61192a83611771565b91506020830135801515811461193f57600080fd5b809150509250929050565b60008060006060848603121561195f57600080fd5b61196884611771565b925061197660208501611771565b9150604084013560ff8116811461198c57600080fd5b809150509250925092565b600080604083850312156119aa57600080fd5b6119b383611771565b91506119c160208401611771565b90509250929050565b600080604083850312156119dd57600080fd5b6119e683611771565b946020939093013593505050565b60005b83811015611a0f5781810151838201526020016119f7565b83811115610fc55750506000910152565b60008251611a328184602087016119f4565b9190910192915050565b6020815260008251806020840152611a5b8160408501602087016119f4565b601f01601f1916919091016040019291505056fea2646970667358221220a1a71cb4c1c37e45b2070c219024fbb23d67c959b48a8697fca452b9e26d82c464736f6c634300080f0033",
    "linkReferences": {}
  },
  "methodIdentifiers": {
    "newMint(address,address,uint256)": "6cc37140",
    "owner()": "8da5cb5b",
    "putDepositYield(address,address,uint256)": "0a47dd35",
    "setAcceptedToken(address,address,uint8)": "2a57c13b",
    "setApproveYield(address,bool)": "29d0a02e",
    "setExchangeRateTuin(address,uint256)": "ded034d9",
    "setExchangeRateUsd(address,uint256)": "dce6b40b",
    "setNewSupply(address,uint256)": "c37f27bc",
    "setOwner(address)": "13af4035",
    "setPaused(address,bool)": "89eba0d2",
    "setRedeemableDate(address,string)": "228f8a5e",
    "setTUINPoolOwner(address,address)": "ad9af643",
    "setTuinOwner(address,address)": "88844bb9",
    "setTuinPoolAddress(address,address)": "ecbf4b2c",
    "setYieldToken(address,address)": "6c83dd3d",
    "withdraw(address,address,address,uint256)": "0b620b81"
  },
  "id": 21
}