{
  "abi": [
    {
      "inputs": [],
      "stateMutability": "nonpayable",
      "type": "constructor"
    },
    {
      "inputs": [
        {
          "internalType": "address",
          "name": "tuinToken",
          "type": "address"
        },
        {
          "internalType": "address",
          "name": "_to",
          "type": "address"
        },
        {
          "internalType": "uint256",
          "name": "_amount",
          "type": "uint256"
        },
        {
          "internalType": "bool",
          "name": "isEth",
          "type": "bool"
        }
      ],
      "name": "newMint",
      "outputs": [
        {
          "internalType": "bool",
          "name": "success",
          "type": "bool"
        }
      ],
      "stateMutability": "nonpayable",
      "type": "function"
    },
    {
      "inputs": [],
      "name": "owner",
      "outputs": [
        {
          "internalType": "address",
          "name": "",
          "type": "address"
        }
      ],
      "stateMutability": "view",
      "type": "function"
    },
    {
      "inputs": [
        {
          "internalType": "address",
          "name": "tuinPool",
          "type": "address"
        },
        {
          "internalType": "address",
          "name": "_yieldAddress",
          "type": "address"
        },
        {
          "internalType": "uint256",
          "name": "amountIn",
          "type": "uint256"
        }
      ],
      "name": "putDepositYield",
      "outputs": [
        {
          "internalType": "bool",
          "name": "success",
          "type": "bool"
        }
      ],
      "stateMutability": "nonpayable",
      "type": "function"
    },
    {
      "inputs": [
        {
          "internalType": "address",
          "name": "tuinPool",
          "type": "address"
        },
        {
          "internalType": "address",
          "name": "_token",
          "type": "address"
        },
        {
          "internalType": "uint8",
          "name": "_funcNo",
          "type": "uint8"
        }
      ],
      "name": "setAcceptedToken",
      "outputs": [
        {
          "internalType": "bool",
          "name": "success",
          "type": "bool"
        }
      ],
      "stateMutability": "nonpayable",
      "type": "function"
    },
    {
      "inputs": [
        {
          "internalType": "address",
          "name": "tuinPool",
          "type": "address"
        },
        {
          "internalType": "bool",
          "name": "_approved",
          "type": "bool"
        }
      ],
      "name": "setApproveYield",
      "outputs": [
        {
          "internalType": "bool",
          "name": "success",
          "type": "bool"
        }
      ],
      "stateMutability": "nonpayable",
      "type": "function"
    },
    {
      "inputs": [
        {
          "internalType": "address",
          "name": "tuinPool",
          "type": "address"
        },
        {
          "internalType": "uint256",
          "name": "_newRate",
          "type": "uint256"
        }
      ],
      "name": "setExchangeRate",
      "outputs": [
        {
          "internalType": "bool",
          "name": "success",
          "type": "bool"
        }
      ],
      "stateMutability": "nonpayable",
      "type": "function"
    },
    {
      "inputs": [
        {
          "internalType": "address",
          "name": "tuinToken",
          "type": "address"
        },
        {
          "internalType": "uint256",
          "name": "_newMaxSupply",
          "type": "uint256"
        },
        {
          "internalType": "bool",
          "name": "isEth",
          "type": "bool"
        }
      ],
      "name": "setNewSupply",
      "outputs": [
        {
          "internalType": "bool",
          "name": "success",
          "type": "bool"
        }
      ],
      "stateMutability": "nonpayable",
      "type": "function"
    },
    {
      "inputs": [
        {
          "internalType": "address",
          "name": "_newOwner",
          "type": "address"
        }
      ],
      "name": "setOwner",
      "outputs": [],
      "stateMutability": "nonpayable",
      "type": "function"
    },
    {
      "inputs": [
        {
          "internalType": "address",
          "name": "tuinPool",
          "type": "address"
        },
        {
          "internalType": "string",
          "name": "_date",
          "type": "string"
        }
      ],
      "name": "setRedeemableDate",
      "outputs": [
        {
          "internalType": "bool",
          "name": "success",
          "type": "bool"
        }
      ],
      "stateMutability": "nonpayable",
      "type": "function"
    },
    {
      "inputs": [
        {
          "internalType": "address",
          "name": "tuinPool",
          "type": "address"
        },
        {
          "internalType": "address",
          "name": "_newOwner",
          "type": "address"
        }
      ],
      "name": "setTUINPoolOwner",
      "outputs": [
        {
          "internalType": "bool",
          "name": "success",
          "type": "bool"
        }
      ],
      "stateMutability": "nonpayable",
      "type": "function"
    },
    {
      "inputs": [
        {
          "internalType": "address",
          "name": "tuinToken",
          "type": "address"
        },
        {
          "internalType": "address",
          "name": "_newOwner",
          "type": "address"
        }
      ],
      "name": "setTuinOwner",
      "outputs": [
        {
          "internalType": "bool",
          "name": "success",
          "type": "bool"
        }
      ],
      "stateMutability": "nonpayable",
      "type": "function"
    },
    {
      "inputs": [
        {
          "internalType": "address",
          "name": "tuinPool",
          "type": "address"
        },
        {
          "internalType": "address",
          "name": "_token",
          "type": "address"
        }
      ],
      "name": "setYieldAddress",
      "outputs": [
        {
          "internalType": "bool",
          "name": "success",
          "type": "bool"
        }
      ],
      "stateMutability": "nonpayable",
      "type": "function"
    }
  ],
  "bytecode": {
    "object": "0x608060405234801561001057600080fd5b50600080546001600160a01b03191633179055611546806100326000396000f3fe608060405234801561001057600080fd5b50600436106100b35760003560e01c80634d0e5c58116100715780634d0e5c581461014157806388844bb9146101545780638da5cb5b14610167578063ad9af64314610192578063bd5c5420146101a5578063c31559c6146101b857600080fd5b8062f264d6146100b85780630a47dd35146100e057806313af4035146100f3578063228f8a5e1461010857806329d0a02e1461011b5780632a57c13b1461012e575b600080fd5b6100cb6100c63660046111c8565b6101cb565b60405190151581526020015b60405180910390f35b6100cb6100ee3660046111fb565b6102d1565b610106610101366004611237565b6105f3565b005b6100cb61011636600461126f565b61062c565b6100cb610129366004611342565b610729565b6100cb61013c366004611379565b610830565b6100cb61014f3660046113c6565b610b59565b6100cb6101623660046111c8565b610dab565b60005461017a906001600160a01b031681565b6040516001600160a01b0390911681526020016100d7565b6100cb6101a03660046111c8565b610e9f565b6100cb6101b33660046113fb565b610f9a565b6100cb6101c6366004611425565b6110a5565b600080546001600160a01b031633146101e357600080fd5b6040516001600160a01b03838116602483015284169060440160408051601f198184030181529181526020820180516001600160e01b03166304c8ed6960e21b1790525161023191906114a4565b6000604051808303816000865af19150503d806000811461026e576040519150601f19603f3d011682016040523d82523d6000602084013e610273565b606091505b505080915050806102cb5760405162461bcd60e51b815260206004820152601b60248201527f6661696c656420746f20736574207969656c642061646472657373000000000060448201526064015b60405180910390fd5b92915050565b60408051336024820152306044820152606480820184905282518083039091018152608490910182526020810180516001600160e01b03166323b872dd60e01b1790529051600091829182916001600160a01b0387169161033291906114a4565b6000604051808303816000865af19150503d806000811461036f576040519150601f19603f3d011682016040523d82523d6000602084013e610374565b606091505b509150915081801561039e57508051158061039e57508080602001905181019061039e91906114c0565b6103ea5760405162461bcd60e51b815260206004820152601d60248201527f5969656c643a205452414e5346455246524f4d5f494e5f4641494c454400000060448201526064016102c2565b604080516001600160a01b038881166024830152604480830188905283518084039091018152606490920183526020820180516001600160e01b031663095ea7b360e01b179052915160009283929089169161044691906114a4565b6000604051808303816000865af19150503d8060008114610483576040519150601f19603f3d011682016040523d82523d6000602084013e610488565b606091505b50915091508180156104b25750805115806104b25750808060200190518101906104b291906114c0565b6104fe5760405162461bcd60e51b815260206004820152601d60248201527f5969656c643a205452414e5346455246524f4d5f494e5f4641494c454400000060448201526064016102c2565b6040516001600160a01b0388811660248301526044820188905289169060640160408051601f198184030181529181526020820180516001600160e01b031663d699618560e01b1790525161055391906114a4565b6000604051808303816000865af19150503d8060008114610590576040519150601f19603f3d011682016040523d82523d6000602084013e610595565b606091505b505080955050846105e85760405162461bcd60e51b815260206004820152601d60248201527f6661696c656420746f20707574207969656c6420696e746f20706f6f6c00000060448201526064016102c2565b505050509392505050565b6000546001600160a01b0316331461060a57600080fd5b600080546001600160a01b0319166001600160a01b0392909216919091179055565b600080546001600160a01b0316331461064457600080fd5b826001600160a01b03168260405160240161065f91906114dd565b60408051601f198184030181529181526020820180516001600160e01b0316633ca4ecab60e21b1790525161069491906114a4565b6000604051808303816000865af19150503d80600081146106d1576040519150601f19603f3d011682016040523d82523d6000602084013e6106d6565b606091505b505080915050806102cb5760405162461bcd60e51b815260206004820152601d60248201527f6661696c656420746f207365742072656465656d61626c65206461746500000060448201526064016102c2565b600080546001600160a01b0316331461074157600080fd5b60405182151560248201526001600160a01b0384169060440160408051601f198184030181529181526020820180516001600160e01b031663ee72aef360e01b1790525161078f91906114a4565b6000604051808303816000865af19150503d80600081146107cc576040519150601f19603f3d011682016040523d82523d6000602084013e6107d1565b606091505b505080915050806102cb5760405162461bcd60e51b8152602060048201526024808201527f6661696c656420746f207365742077686574686572207969656c6420617070726044820152631bdd995960e21b60648201526084016102c2565b600080546001600160a01b0316331461084857600080fd5b60018260ff16108061085d575060038260ff16115b156108b85760405162461bcd60e51b815260206004820152602560248201527f4552524f523a20416363657074656420746f6b656e2069732065697468657220604482015264312c322c3360d81b60648201526084016102c2565b604080518082018252601a8082527f7365744163636570746564546f6b656e31286164647265737329000000000000602080840191909152835180850185528281527f7365744163636570746564546f6b656e322861646472657373290000000000008183015284518086019095529184527f7365744163636570746564546f6b656e3328616464726573732900000000000090840152909160ff8516600103610a17576040516001600160a01b03878116602483015288169084906044015b60408051601f198184030181529082905291610993916114a4565b60408051918290039091206020830180516001600160e01b03166001600160e01b0319909216919091179052516109ca91906114a4565b6000604051808303816000865af19150503d8060008114610a07576040519150601f19603f3d011682016040523d82523d6000602084013e610a0c565b606091505b505080945050610b02565b8460ff16600203610a42576040516001600160a01b0387811660248301528816908390604401610978565b8460ff16600303610b02576040516001600160a01b038781166024830152881690829060440160408051601f198184030181529082905291610a83916114a4565b60408051918290039091206020830180516001600160e01b03166001600160e01b031990921691909117905251610aba91906114a4565b6000604051808303816000865af19150503d8060008114610af7576040519150601f19603f3d011682016040523d82523d6000602084013e610afc565b606091505b50909450505b83610b4f5760405162461bcd60e51b815260206004820152601c60248201527f6661696c656420746f2073657420616363657074656420746f6b656e0000000060448201526064016102c2565b5050509392505050565b600080546001600160a01b03163314610b7157600080fd5b604080518082018252601a8082527f6368616e6765537570706c794f6e4574682875696e743235362900000000000060208084019190915283518085019094529083527f6368616e6765537570706c794f6e4273632875696e743235362900000000000090830152908315610c9d57856001600160a01b03168286604051602401610bfe91815260200190565b60408051601f198184030181529082905291610c19916114a4565b60408051918290039091206020830180516001600160e01b03166001600160e01b031990921691909117905251610c5091906114a4565b6000604051808303816000865af19150503d8060008114610c8d576040519150601f19603f3d011682016040523d82523d6000602084013e610c92565b606091505b505080935050610d55565b856001600160a01b03168186604051602401610cbb91815260200190565b60408051601f198184030181529082905291610cd6916114a4565b60408051918290039091206020830180516001600160e01b03166001600160e01b031990921691909117905251610d0d91906114a4565b6000604051808303816000865af19150503d8060008114610d4a576040519150601f19603f3d011682016040523d82523d6000602084013e610d4f565b606091505b50909350505b82610da25760405162461bcd60e51b815260206004820152601860248201527f6661696c656420746f20736574206e657720737570706c79000000000000000060448201526064016102c2565b50509392505050565b600080546001600160a01b03163314610dc357600080fd5b6040516001600160a01b03838116602483015284169060440160408051601f198184030181529181526020820180516001600160e01b03166313af403560e01b17905251610e1191906114a4565b6000604051808303816000865af19150503d8060008114610e4e576040519150601f19603f3d011682016040523d82523d6000602084013e610e53565b606091505b505080915050806102cb5760405162461bcd60e51b81526020600482015260166024820152753330b4b632b2103a379031b430b733b29037bbb732b960511b60448201526064016102c2565b600080546001600160a01b03163314610eb757600080fd5b6040516001600160a01b03838116602483015284169060440160408051601f198184030181529181526020820180516001600160e01b03166313af403560e01b17905251610f0591906114a4565b6000604051808303816000865af19150503d8060008114610f42576040519150601f19603f3d011682016040523d82523d6000602084013e610f47565b606091505b505080915050806102cb5760405162461bcd60e51b815260206004820152601b60248201527f6661696c656420746f206368616e676520706f6f6c206f776e6572000000000060448201526064016102c2565b600080546001600160a01b03163314610fb257600080fd5b826001600160a01b031682604051602401610fcf91815260200190565b60408051601f198184030181529181526020820180516001600160e01b0316636d83470760e11b1790525161100491906114a4565b6000604051808303816000865af19150503d8060008114611041576040519150601f19603f3d011682016040523d82523d6000602084013e611046565b606091505b505080915050806102cb5760405162461bcd60e51b815260206004820152602360248201527f6661696c656420746f2073657420776865746865722065786368616e6765207260448201526261746560e81b60648201526084016102c2565b600080546001600160a01b031633146110bd57600080fd5b6040516001600160a01b03858116602483015260448201859052831515606483015286169060840160408051601f198184030181529181526020820180516001600160e01b03166334686fad60e21b1790525161111a91906114a4565b6000604051808303816000865af19150503d8060008114611157576040519150601f19603f3d011682016040523d82523d6000602084013e61115c565b606091505b505080915050806111a45760405162461bcd60e51b815260206004820152601260248201527119985a5b1959081d1bc81b995dc81b5a5b9d60721b60448201526064016102c2565b949350505050565b80356001600160a01b03811681146111c357600080fd5b919050565b600080604083850312156111db57600080fd5b6111e4836111ac565b91506111f2602084016111ac565b90509250929050565b60008060006060848603121561121057600080fd5b611219846111ac565b9250611227602085016111ac565b9150604084013590509250925092565b60006020828403121561124957600080fd5b611252826111ac565b9392505050565b634e487b7160e01b600052604160045260246000fd5b6000806040838503121561128257600080fd5b61128b836111ac565b9150602083013567ffffffffffffffff808211156112a857600080fd5b818501915085601f8301126112bc57600080fd5b8135818111156112ce576112ce611259565b604051601f8201601f19908116603f011681019083821181831017156112f6576112f6611259565b8160405282815288602084870101111561130f57600080fd5b8260208601602083013760006020848301015280955050505050509250929050565b801515811461133f57600080fd5b50565b6000806040838503121561135557600080fd5b61135e836111ac565b9150602083013561136e81611331565b809150509250929050565b60008060006060848603121561138e57600080fd5b611397846111ac565b92506113a5602085016111ac565b9150604084013560ff811681146113bb57600080fd5b809150509250925092565b6000806000606084860312156113db57600080fd5b6113e4846111ac565b92506020840135915060408401356113bb81611331565b6000806040838503121561140e57600080fd5b611417836111ac565b946020939093013593505050565b6000806000806080858703121561143b57600080fd5b611444856111ac565b9350611452602086016111ac565b925060408501359150606085013561146981611331565b939692955090935050565b60005b8381101561148f578181015183820152602001611477565b8381111561149e576000848401525b50505050565b600082516114b6818460208701611474565b9190910192915050565b6000602082840312156114d257600080fd5b815161125281611331565b60208152600082518060208401526114fc816040850160208701611474565b601f01601f1916919091016040019291505056fea264697066735822122065eef9f29ebda44d6e7708687ef240f92d784dd58f64273baac9aa0c43c37d3a64736f6c634300080f0033",
    "linkReferences": {}
  },
  "methodIdentifiers": {
    "newMint(address,address,uint256,bool)": "c31559c6",
    "owner()": "8da5cb5b",
    "putDepositYield(address,address,uint256)": "0a47dd35",
    "setAcceptedToken(address,address,uint8)": "2a57c13b",
    "setApproveYield(address,bool)": "29d0a02e",
    "setExchangeRate(address,uint256)": "bd5c5420",
    "setNewSupply(address,uint256,bool)": "4d0e5c58",
    "setOwner(address)": "13af4035",
    "setRedeemableDate(address,string)": "228f8a5e",
    "setTUINPoolOwner(address,address)": "ad9af643",
    "setTuinOwner(address,address)": "88844bb9",
    "setYieldAddress(address,address)": "00f264d6"
  },
  "id": 25
}