{
  "abi": [
    {
      "inputs": [],
      "stateMutability": "nonpayable",
      "type": "constructor"
    },
    {
      "inputs": [],
      "name": "acceptedToken1",
      "outputs": [
        {
          "internalType": "address",
          "name": "",
          "type": "address"
        }
      ],
      "stateMutability": "view",
      "type": "function"
    },
    {
      "inputs": [],
      "name": "acceptedToken2",
      "outputs": [
        {
          "internalType": "address",
          "name": "",
          "type": "address"
        }
      ],
      "stateMutability": "view",
      "type": "function"
    },
    {
      "inputs": [],
      "name": "acceptedToken3",
      "outputs": [
        {
          "internalType": "address",
          "name": "",
          "type": "address"
        }
      ],
      "stateMutability": "view",
      "type": "function"
    },
    {
      "inputs": [],
      "name": "amountDepositedacceptedToken1",
      "outputs": [
        {
          "internalType": "uint256",
          "name": "",
          "type": "uint256"
        }
      ],
      "stateMutability": "view",
      "type": "function"
    },
    {
      "inputs": [],
      "name": "amountDepositedacceptedToken2",
      "outputs": [
        {
          "internalType": "uint256",
          "name": "",
          "type": "uint256"
        }
      ],
      "stateMutability": "view",
      "type": "function"
    },
    {
      "inputs": [],
      "name": "amountDepositedacceptedToken3",
      "outputs": [
        {
          "internalType": "uint256",
          "name": "",
          "type": "uint256"
        }
      ],
      "stateMutability": "view",
      "type": "function"
    },
    {
      "inputs": [
        {
          "internalType": "address",
          "name": "_tokenIn",
          "type": "address"
        },
        {
          "internalType": "address",
          "name": "_tokenOut",
          "type": "address"
        },
        {
          "internalType": "uint256",
          "name": "_amountIn",
          "type": "uint256"
        }
      ],
      "name": "amountTuinOut",
      "outputs": [
        {
          "internalType": "uint256",
          "name": "_amountTuinOut",
          "type": "uint256"
        }
      ],
      "stateMutability": "view",
      "type": "function"
    },
    {
      "inputs": [],
      "name": "amountWithdrawnacceptedToken1",
      "outputs": [
        {
          "internalType": "uint256",
          "name": "",
          "type": "uint256"
        }
      ],
      "stateMutability": "view",
      "type": "function"
    },
    {
      "inputs": [],
      "name": "amountWithdrawnacceptedToken2",
      "outputs": [
        {
          "internalType": "uint256",
          "name": "",
          "type": "uint256"
        }
      ],
      "stateMutability": "view",
      "type": "function"
    },
    {
      "inputs": [],
      "name": "amountWithdrawnacceptedToken3",
      "outputs": [
        {
          "internalType": "uint256",
          "name": "",
          "type": "uint256"
        }
      ],
      "stateMutability": "view",
      "type": "function"
    },
    {
      "inputs": [],
      "name": "amountYieldDepositedacceptedToken",
      "outputs": [
        {
          "internalType": "uint256",
          "name": "",
          "type": "uint256"
        }
      ],
      "stateMutability": "view",
      "type": "function"
    },
    {
      "inputs": [
        {
          "internalType": "bool",
          "name": "_isApproved",
          "type": "bool"
        }
      ],
      "name": "approveYield",
      "outputs": [
        {
          "internalType": "bool",
          "name": "",
          "type": "bool"
        }
      ],
      "stateMutability": "nonpayable",
      "type": "function"
    },
    {
      "inputs": [
        {
          "internalType": "address",
          "name": "_tokenIn",
          "type": "address"
        }
      ],
      "name": "balanceTknIn",
      "outputs": [
        {
          "internalType": "uint256",
          "name": "",
          "type": "uint256"
        }
      ],
      "stateMutability": "view",
      "type": "function"
    },
    {
      "inputs": [],
      "name": "deploymentChainId",
      "outputs": [
        {
          "internalType": "uint256",
          "name": "",
          "type": "uint256"
        }
      ],
      "stateMutability": "view",
      "type": "function"
    },
    {
      "inputs": [
        {
          "internalType": "address",
          "name": "_tokenIn",
          "type": "address"
        },
        {
          "internalType": "uint256",
          "name": "_amountIn",
          "type": "uint256"
        }
      ],
      "name": "depositYieldToken",
      "outputs": [
        {
          "internalType": "bool",
          "name": "",
          "type": "bool"
        }
      ],
      "stateMutability": "nonpayable",
      "type": "function"
    },
    {
      "inputs": [],
      "name": "exchangeRateTuin",
      "outputs": [
        {
          "internalType": "uint256",
          "name": "",
          "type": "uint256"
        }
      ],
      "stateMutability": "view",
      "type": "function"
    },
    {
      "inputs": [],
      "name": "exchangeRateUsd",
      "outputs": [
        {
          "internalType": "uint256",
          "name": "",
          "type": "uint256"
        }
      ],
      "stateMutability": "view",
      "type": "function"
    },
    {
      "inputs": [],
      "name": "isApproved",
      "outputs": [
        {
          "internalType": "bool",
          "name": "",
          "type": "bool"
        }
      ],
      "stateMutability": "view",
      "type": "function"
    },
    {
      "inputs": [],
      "name": "isPaused",
      "outputs": [
        {
          "internalType": "bool",
          "name": "",
          "type": "bool"
        }
      ],
      "stateMutability": "view",
      "type": "function"
    },
    {
      "inputs": [],
      "name": "owner",
      "outputs": [
        {
          "internalType": "address",
          "name": "",
          "type": "address"
        }
      ],
      "stateMutability": "view",
      "type": "function"
    },
    {
      "inputs": [
        {
          "internalType": "uint256",
          "name": "_amountIn",
          "type": "uint256"
        },
        {
          "internalType": "address",
          "name": "_tuinToken",
          "type": "address"
        },
        {
          "internalType": "address",
          "name": "_yieldAddress",
          "type": "address"
        }
      ],
      "name": "redeem",
      "outputs": [],
      "stateMutability": "nonpayable",
      "type": "function"
    },
    {
      "inputs": [],
      "name": "redeemableDate",
      "outputs": [
        {
          "internalType": "string",
          "name": "",
          "type": "string"
        }
      ],
      "stateMutability": "view",
      "type": "function"
    },
    {
      "inputs": [
        {
          "internalType": "address",
          "name": "_tokenIn",
          "type": "address"
        },
        {
          "internalType": "uint256",
          "name": "_amountIn",
          "type": "uint256"
        }
      ],
      "name": "scaleYieldTo18",
      "outputs": [
        {
          "internalType": "uint256",
          "name": "",
          "type": "uint256"
        }
      ],
      "stateMutability": "view",
      "type": "function"
    },
    {
      "inputs": [
        {
          "internalType": "address",
          "name": "_tokenIn",
          "type": "address"
        },
        {
          "internalType": "uint256",
          "name": "_amountIn",
          "type": "uint256"
        }
      ],
      "name": "scaleYieldToDecimal",
      "outputs": [
        {
          "internalType": "uint256",
          "name": "",
          "type": "uint256"
        }
      ],
      "stateMutability": "view",
      "type": "function"
    },
    {
      "inputs": [
        {
          "internalType": "address",
          "name": "_token1",
          "type": "address"
        }
      ],
      "name": "setAcceptedToken1",
      "outputs": [
        {
          "internalType": "bool",
          "name": "",
          "type": "bool"
        }
      ],
      "stateMutability": "nonpayable",
      "type": "function"
    },
    {
      "inputs": [
        {
          "internalType": "address",
          "name": "_token2",
          "type": "address"
        }
      ],
      "name": "setAcceptedToken2",
      "outputs": [
        {
          "internalType": "bool",
          "name": "",
          "type": "bool"
        }
      ],
      "stateMutability": "nonpayable",
      "type": "function"
    },
    {
      "inputs": [
        {
          "internalType": "address",
          "name": "_token3",
          "type": "address"
        }
      ],
      "name": "setAcceptedToken3",
      "outputs": [
        {
          "internalType": "bool",
          "name": "",
          "type": "bool"
        }
      ],
      "stateMutability": "nonpayable",
      "type": "function"
    },
    {
      "inputs": [
        {
          "internalType": "uint256",
          "name": "_rate",
          "type": "uint256"
        }
      ],
      "name": "setExchangeRateTuin",
      "outputs": [
        {
          "internalType": "bool",
          "name": "",
          "type": "bool"
        }
      ],
      "stateMutability": "nonpayable",
      "type": "function"
    },
    {
      "inputs": [
        {
          "internalType": "uint256",
          "name": "_rate",
          "type": "uint256"
        }
      ],
      "name": "setExchangeRateUsd",
      "outputs": [
        {
          "internalType": "bool",
          "name": "",
          "type": "bool"
        }
      ],
      "stateMutability": "nonpayable",
      "type": "function"
    },
    {
      "inputs": [
        {
          "internalType": "address",
          "name": "_surryWallet",
          "type": "address"
        }
      ],
      "name": "setOwner",
      "outputs": [
        {
          "internalType": "bool",
          "name": "",
          "type": "bool"
        }
      ],
      "stateMutability": "nonpayable",
      "type": "function"
    },
    {
      "inputs": [
        {
          "internalType": "bool",
          "name": "_isPaused",
          "type": "bool"
        }
      ],
      "name": "setPaused",
      "outputs": [
        {
          "internalType": "bool",
          "name": "",
          "type": "bool"
        }
      ],
      "stateMutability": "nonpayable",
      "type": "function"
    },
    {
      "inputs": [
        {
          "internalType": "string",
          "name": "_date",
          "type": "string"
        }
      ],
      "name": "setRedeemableDate",
      "outputs": [
        {
          "internalType": "bool",
          "name": "",
          "type": "bool"
        }
      ],
      "stateMutability": "nonpayable",
      "type": "function"
    },
    {
      "inputs": [
        {
          "internalType": "address",
          "name": "_yieldToken",
          "type": "address"
        }
      ],
      "name": "setYieldToken",
      "outputs": [
        {
          "internalType": "bool",
          "name": "",
          "type": "bool"
        }
      ],
      "stateMutability": "nonpayable",
      "type": "function"
    },
    {
      "inputs": [
        {
          "internalType": "uint256",
          "name": "_amountIn",
          "type": "uint256"
        },
        {
          "internalType": "address",
          "name": "_tokenIn",
          "type": "address"
        },
        {
          "internalType": "address",
          "name": "_tokenOut",
          "type": "address"
        }
      ],
      "name": "swapIn",
      "outputs": [
        {
          "internalType": "bool",
          "name": "",
          "type": "bool"
        }
      ],
      "stateMutability": "nonpayable",
      "type": "function"
    },
    {
      "inputs": [
        {
          "internalType": "address",
          "name": "tuinToken",
          "type": "address"
        }
      ],
      "name": "tuinHeld",
      "outputs": [
        {
          "internalType": "uint256",
          "name": "amountHeld",
          "type": "uint256"
        }
      ],
      "stateMutability": "view",
      "type": "function"
    },
    {
      "inputs": [
        {
          "internalType": "address",
          "name": "_tokenIn",
          "type": "address"
        },
        {
          "internalType": "address",
          "name": "_to",
          "type": "address"
        },
        {
          "internalType": "uint256",
          "name": "_amountOut",
          "type": "uint256"
        }
      ],
      "name": "withdrawAcceptedToken",
      "outputs": [
        {
          "internalType": "bool",
          "name": "",
          "type": "bool"
        }
      ],
      "stateMutability": "nonpayable",
      "type": "function"
    },
    {
      "inputs": [],
      "name": "yieldToken",
      "outputs": [
        {
          "internalType": "address",
          "name": "",
          "type": "address"
        }
      ],
      "stateMutability": "view",
      "type": "function"
    }
  ],
  "bytecode": {
    "object": "0x60a060405234801561001057600080fd5b5046608052600080546001600160a01b031916331790556080516123e3610042600039600061045a01526123e36000f3fe608060405234801561001057600080fd5b50600436106102275760003560e01c806376d5de8511610130578063b50dd29f116100b8578063d9b018241161007c578063d9b018241461047c578063e28f765c14610491578063ee72aef3146104a4578063f28e79a3146104b7578063f293b2ac146104ca57600080fd5b8063b50dd29f1461041b578063ba08765214610424578063ba2bbf0414610439578063bf7788a714610442578063cd0d00961461045557600080fd5b8063a8364248116100ff578063a8364248146103c7578063aabf8c3b146103da578063b03fec8b146103ed578063b187bd2614610400578063b2817bbe1461041257600080fd5b806376d5de85146103855780637b54083a146103985780638da5cb5b146103a15780639dcba70a146103b457600080fd5b8063519824b0116101b35780636b6d7ba2116101825780636b6d7ba2146103305780636ca5a9bb14610339578063708fd65b1461034c57806376908d9a1461035f57806376b128821461037257600080fd5b8063519824b01461030257806351dfe0eb14610315578063543313231461031e57806365882cd41461032757600080fd5b8063234471d2116101fa578063234471d21461029157806323ffce85146102bc57806328f371aa146102cf5780632fad58b3146102dc5780634619a066146102ef57600080fd5b80630cd5df721461022c57806313af40351461024857806316119bba1461026b57806316c38b3c1461027e575b600080fd5b61023560085481565b6040519081526020015b60405180910390f35b61025b610256366004611e15565b6104dd565b604051901515815260200161023f565b61025b610279366004611e15565b610566565b61025b61028c366004611e37565b6105a3565b6003546102a4906001600160a01b031681565b6040516001600160a01b03909116815260200161023f565b61025b6102ca366004611e15565b6105d8565b600d5461025b9060ff1681565b6102356102ea366004611e59565b610672565b61025b6102fd366004611e15565b610877565b610235610310366004611e95565b6108b4565b610235600e5481565b61023560095481565b61023560075481565b610235600a5481565b61025b610347366004611e15565b610a08565b61023561035a366004611e15565b610a43565b61025b61036d366004611e59565b610b56565b61025b610380366004611ebf565b610c95565b6004546102a4906001600160a01b031681565b61023560065481565b6000546102a4906001600160a01b031681565b6102356103c2366004611e15565b6111a3565b61025b6103d5366004611efb565b611257565b61025b6103e8366004611efb565b6112c8565b6102356103fb366004611e95565b611339565b600d5461025b90610100900460ff1681565b610235600f5481565b61023560055481565b610437610432366004611ebf565b611454565b005b610235600b5481565b6001546102a4906001600160a01b031681565b6102357f000000000000000000000000000000000000000000000000000000000000000081565b6104846119f8565b60405161023f9190611f44565b6002546102a4906001600160a01b031681565b61025b6104b2366004611e37565b611a86565b61025b6104c5366004611e95565b611ab5565b61025b6104d8366004611f8d565b611ca1565b600080546001600160a01b031633146104f557600080fd5b6001600160a01b03821630036105425760405162461bcd60e51b815260206004820152600d60248201526c31b0b73a1037bbb71039b2b63360991b60448201526064015b60405180910390fd5b50600080546001600160a01b0319166001600160a01b03831617905560015b919050565b600080546001600160a01b0316331461057e57600080fd5b50600380546001600160a01b0383166001600160a01b03199091161790556001919050565b600080546001600160a01b031633146105bb57600080fd5b50600d80548215156101000261ff00199091161790556001919050565b600080546001600160a01b031633146105f057600080fd5b6001546001600160a01b038381169116148061061957506002546001600160a01b038381169116145b8061063157506003546001600160a01b038381169116145b61064d5760405162461bcd60e51b81526004016105399061203e565b50600480546001600160a01b0383166001600160a01b03199091161790556001919050565b60408051600481526024810182526020810180516001600160e01b031663313ce56760e01b1790529051600091829182916001600160a01b038816916106b89190612075565b600060405180830381855afa9150503d80600081146106f3576040519150601f19603f3d011682016040523d82523d6000602084013e6106f8565b606091505b509150915081801561070c57506020815110155b61071557600080fd5b60008180602001905181019061072b9190612091565b60408051600481526024810182526020810180516001600160e01b031663313ce56760e01b179052905191925060009182916001600160a01b038a16916107729190612075565b600060405180830381855afa9150503d80600081146107ad576040519150601f19603f3d011682016040523d82523d6000602084013e6107b2565b606091505b50915091508180156107c657506020815110155b6107cf57600080fd5b6000818060200190518101906107e59190612091565b9050600081851115610822576107fb82866120c0565b905061080881600a6121bb565b600e54610815908b6121c7565b61081f91906121e6565b97505b61082c85836120c0565b9050801561085b5761083f81600a6121bb565b600e5461084c908b6121c7565b61085691906121c7565b610868565b600e54610868908a6121c7565b9b9a5050505050505050505050565b600080546001600160a01b0316331461088f57600080fd5b50600280546001600160a01b0383166001600160a01b03199091161790556001919050565b60408051600481526024810182526020810180516001600160e01b031663313ce56760e01b1790529051600091829182916001600160a01b038716916108fa9190612075565b600060405180830381855afa9150503d8060008114610935576040519150601f19603f3d011682016040523d82523d6000602084013e61093a565b606091505b509150915081801561094e57506020815110155b61095757600080fd5b60008180602001905181019061096d9190612091565b9050600060128211156109b4576109856012836120c0565b905061099281600a6121bb565b600f5461099f90886121c7565b6109a991906121c7565b945050505050610a02565b6109bf8260126120c0565b905080156109ee576109d281600a6121bb565b600f546109df90886121c7565b6109e991906121e6565b6109fb565b600f546109fb90876121c7565b9450505050505b92915050565b600080546001600160a01b03163314610a2057600080fd5b50600180546001600160a01b0383166001600160a01b0319909116178155919050565b604080513060248083019190915282518083039091018152604490910182526020810180516001600160e01b03166370a0823160e01b1790529051600091829182916001600160a01b03861691610a9a9190612075565b600060405180830381855afa9150503d8060008114610ad5576040519150601f19603f3d011682016040523d82523d6000602084013e610ada565b606091505b5091509150818015610aee57506020815110155b610b3a5760405162461bcd60e51b815260206004820152601b60248201527f4572723a20436f756c646e277420676574205475696e2068656c6400000000006044820152606401610539565b80806020019051810190610b4e9190612091565b949350505050565b600080546001600160a01b03163314610b6e57600080fd5b604080516001600160a01b038581166024830152604480830186905283518084039091018152606490920183526020820180516001600160e01b031663a9059cbb60e01b1790529151600092839290881691610bca9190612075565b6000604051808303816000865af19150503d8060008114610c07576040519150601f19603f3d011682016040523d82523d6000602084013e610c0c565b606091505b5091509150818015610c2057506020815110155b610c7f5760405162461bcd60e51b815260206004820152602a60248201527f4572723a20436f756c646e2774207769746864726177206163636570746564206044820152691d1bdad95b881a195b1960b21b6064820152608401610539565b610c898685611cce565b50600195945050505050565b600d54600090610100900460ff1615610cea5760405162461bcd60e51b8152602060048201526017602482015276115c9c8e8818dbdb9d1c9858dd081a5cc81c185d5cd959604a1b6044820152606401610539565b60008411610d305760405162461bcd60e51b815260206004820152601360248201527204552523a205f616d6f756e74496e206973203606c1b6044820152606401610539565b6001546001600160a01b0384811691161480610d5957506002546001600160a01b038481169116145b80610d7157506003546001600160a01b038481169116145b610dbd5760405162461bcd60e51b815260206004820152601760248201527f4552523a204e6f7420616363657074656420746f6b656e0000000000000000006044820152606401610539565b6001546001600160a01b0316151580610de057506002546001600160a01b031615155b80610df557506003546001600160a01b031615155b610e415760405162461bcd60e51b815260206004820152601c60248201527f4552523a20416363657074656420746f6b656e73206e6f7420736574000000006044820152606401610539565b6001600160a01b038316610e975760405162461bcd60e51b815260206004820152601760248201527f4552523a20546f6b656e496e20616464726573732830290000000000000000006044820152606401610539565b6000610ea2846111a3565b60408051336024820152306044820152606480820189905282518083039091018152608490910182526020810180516001600160e01b03166323b872dd60e01b179052905191925060009182916001600160a01b03881691610f049190612075565b6000604051808303816000865af19150503d8060008114610f41576040519150601f19603f3d011682016040523d82523d6000602084013e610f46565b606091505b5091509150818015610f5a57506020815110155b610fa65760405162461bcd60e51b815260206004820152601a60248201527f4572723a20436f756c646e2774205472616e7366657246726f6d0000000000006044820152606401610539565b6000610fb1876111a3565b905080610fbe8986612208565b1015610fdc5760405162461bcd60e51b815260040161053990612220565b600e5460000361102e5760405162461bcd60e51b815260206004820152601a60248201527f4572723a2065786368616e67652072617465206e6f74207365740000000000006044820152606401610539565b600061103b88888b610672565b90508061104788610a43565b101561108e5760405162461bcd60e51b81526020600482015260166024820152754572723a205475696e204c656674206973204c65737360501b6044820152606401610539565b60408051336024820152604480820184905282518083039091018152606490910182526020810180516001600160e01b031663a9059cbb60e01b179052905160009182916001600160a01b038b16916110e691612075565b6000604051808303816000865af19150503d8060008114611123576040519150601f19603f3d011682016040523d82523d6000602084013e611128565b606091505b509150915081801561113c57506020815110155b6111885760405162461bcd60e51b815260206004820152601a60248201527f4572723a20436f756c646e2774205472616e73666572204f75740000000000006044820152606401610539565b6111928a8c611d5c565b5060019a9950505050505050505050565b604080513060248083019190915282518083039091018152604490910182526020810180516001600160e01b03166370a0823160e01b1790529051600091829182916001600160a01b038616916111fa9190612075565b600060405180830381855afa9150503d8060008114611235576040519150601f19603f3d011682016040523d82523d6000602084013e61123a565b606091505b509150915081801561124e57506020815110155b610b3a57600080fd5b600080546001600160a01b0316331461126f57600080fd5b816000036112bf5760405162461bcd60e51b815260206004820152601d60248201527f726174652073686f756c642062652067726561746572207468616e20300000006044820152606401610539565b50600e55600190565b600080546001600160a01b031633146112e057600080fd5b816000036113305760405162461bcd60e51b815260206004820152601d60248201527f726174652073686f756c642062652067726561746572207468616e20300000006044820152606401610539565b50600f55600190565b60408051600481526024810182526020810180516001600160e01b031663313ce56760e01b1790529051600091829182916001600160a01b0387169161137f9190612075565b600060405180830381855afa9150503d80600081146113ba576040519150601f19603f3d011682016040523d82523d6000602084013e6113bf565b606091505b50915091508180156113d357506020815110155b6113dc57600080fd5b6000818060200190518101906113f29190612091565b9050600060128211156114215761140a6012836120c0565b905061141781600a6121bb565b6109a990876121e6565b61142c8260126120c0565b905080156114495761143f81600a6121bb565b6109e990876121c7565b509395945050505050565b600d54610100900460ff16156114a65760405162461bcd60e51b8152602060048201526017602482015276115c9c8e8818dbdb9d1c9858dd081a5cc81c185d5cd959604a1b6044820152606401610539565b826000036114f65760405162461bcd60e51b815260206004820152601e60248201527f4572723a2063616e6e6f742072656465656d207a65726f20616d6f756e7400006044820152606401610539565b6001600160a01b0381166115415760405162461bcd60e51b8152602060048201526012602482015271115c9c8e881e5a595b19081b9bdd081cd95d60721b6044820152606401610539565b6001546001600160a01b038281169116148061156a57506002546001600160a01b038281169116145b8061158257506003546001600160a01b038281169116145b61159e5760405162461bcd60e51b81526004016105399061203e565b600d5460ff1615156000036116055760405162461bcd60e51b815260206004820152602760248201527f4572723a207374696c6c2067656e65726174696e67207969656c642c20636865604482015266636b206261636b60c81b6064820152608401610539565b6000611610836111a3565b60408051336024820152306044820152606480820188905282518083039091018152608490910182526020810180516001600160e01b03166323b872dd60e01b179052905191925060009182916001600160a01b038716916116729190612075565b6000604051808303816000865af19150503d80600081146116af576040519150601f19603f3d011682016040523d82523d6000602084013e6116b4565b606091505b50915091508180156116c857506020815110155b6117145760405162461bcd60e51b815260206004820152601a60248201527f4572723a20436f756c646e2774205472616e7366657246726f6d0000000000006044820152606401610539565b600061171f866111a3565b90508061172c8886612208565b101561174a5760405162461bcd60e51b815260040161053990612220565b6040513060248201526044810188905260009081906001600160a01b0389169060640160408051601f198184030181529181526020820180516001600160e01b0316632770a7eb60e21b179052516117a29190612075565b6000604051808303816000865af19150503d80600081146117df576040519150601f19603f3d011682016040523d82523d6000602084013e6117e4565b606091505b50915091508180156117f857506020815110155b6118395760405162461bcd60e51b815260206004820152601260248201527122b9391d1021b7bab6323713ba10213ab93760711b6044820152606401610539565b600f5460000361188b5760405162461bcd60e51b815260206004820152601a60248201527f4572723a2065786368616e67652072617465206e6f74207365740000000000006044820152606401610539565b6000611897888b6108b4565b6004549091506001600160a01b038981169116146118f05760405162461bcd60e51b81526020600482015260166024820152754572723a206e6f74207969656c64206164647265737360501b6044820152606401610539565b60408051336024820152604480820184905282518083039091018152606490910182526020810180516001600160e01b031663a9059cbb60e01b179052905160009182916001600160a01b038c169161194891612075565b6000604051808303816000865af19150503d8060008114611985576040519150601f19603f3d011682016040523d82523d6000602084013e61198a565b606091505b509150915081801561199e57506020815110155b6119ea5760405162461bcd60e51b815260206004820152601860248201527f4572723a205452414e534645525f4f55545f4641494c454400000000000000006044820152606401610539565b505050505050505050505050565b600c8054611a0590612264565b80601f0160208091040260200160405190810160405280929190818152602001828054611a3190612264565b8015611a7e5780601f10611a5357610100808354040283529160200191611a7e565b820191906000526020600020905b815481529060010190602001808311611a6157829003601f168201915b505050505081565b600080546001600160a01b03163314611a9e57600080fd5b50600d805460ff1916911515919091179055600190565b600080546001600160a01b03163314611acd57600080fd5b6001546001600160a01b0384811691161480611af657506002546001600160a01b038481169116145b80611b0e57506003546001600160a01b038481169116145b611b2a5760405162461bcd60e51b81526004016105399061203e565b6001600160a01b038316611b805760405162461bcd60e51b815260206004820152601760248201527f4572723a20546f6b656e496e20616464726573732830290000000000000000006044820152606401610539565b60408051336024820152306044820152606480820185905282518083039091018152608490910182526020810180516001600160e01b03166323b872dd60e01b179052905160009182916001600160a01b03871691611bde91612075565b6000604051808303816000865af19150503d8060008114611c1b576040519150601f19603f3d011682016040523d82523d6000602084013e611c20565b606091505b5091509150818015611c3457506020815110155b611c8c5760405162461bcd60e51b8152602060048201526024808201527f4572723a20436f756c646e2774206465706f736974206163636570746564207460448201526337b5b2b760e11b6064820152608401610539565b611c968585611de0565b506001949350505050565b600080546001600160a01b03163314611cb957600080fd5b600c611cc583826122ed565b50600192915050565b6001546001600160a01b0390811690831603611cfc578060086000828254611cf69190612208565b90915550505b6002546001600160a01b0390811690831603611d2a578060096000828254611d249190612208565b90915550505b6003546001600160a01b0390811690831603611d585780600a6000828254611d529190612208565b90915550505b5050565b6001546001600160a01b0390811690831603611d8a578060056000828254611d849190612208565b90915550505b6002546001600160a01b0390811690831603611db8578060066000828254611db29190612208565b90915550505b6003546001600160a01b0390811690831603611d58578060076000828254611d529190612208565b611dea8282611339565b905080600b6000828254611d529190612208565b80356001600160a01b038116811461056157600080fd5b600060208284031215611e2757600080fd5b611e3082611dfe565b9392505050565b600060208284031215611e4957600080fd5b81358015158114611e3057600080fd5b600080600060608486031215611e6e57600080fd5b611e7784611dfe565b9250611e8560208501611dfe565b9150604084013590509250925092565b60008060408385031215611ea857600080fd5b611eb183611dfe565b946020939093013593505050565b600080600060608486031215611ed457600080fd5b83359250611ee460208501611dfe565b9150611ef260408501611dfe565b90509250925092565b600060208284031215611f0d57600080fd5b5035919050565b60005b83811015611f2f578181015183820152602001611f17565b83811115611f3e576000848401525b50505050565b6020815260008251806020840152611f63816040850160208701611f14565b601f01601f19169190910160400192915050565b634e487b7160e01b600052604160045260246000fd5b600060208284031215611f9f57600080fd5b813567ffffffffffffffff80821115611fb757600080fd5b818401915084601f830112611fcb57600080fd5b813581811115611fdd57611fdd611f77565b604051601f8201601f19908116603f0116810190838211818310171561200557612005611f77565b8160405282815287602084870101111561201e57600080fd5b826020860160208301376000928101602001929092525095945050505050565b60208082526017908201527f4572723a204e6f7420616363657074656420746f6b656e000000000000000000604082015260600190565b60008251612087818460208701611f14565b9190910192915050565b6000602082840312156120a357600080fd5b5051919050565b634e487b7160e01b600052601160045260246000fd5b6000828210156120d2576120d26120aa565b500390565b600181815b808511156121125781600019048211156120f8576120f86120aa565b8085161561210557918102915b93841c93908002906120dc565b509250929050565b60008261212957506001610a02565b8161213657506000610a02565b816001811461214c576002811461215657612172565b6001915050610a02565b60ff841115612167576121676120aa565b50506001821b610a02565b5060208310610133831016604e8410600b8410161715612195575081810a610a02565b61219f83836120d7565b80600019048211156121b3576121b36120aa565b029392505050565b6000611e30838361211a565b60008160001904831182151516156121e1576121e16120aa565b500290565b60008261220357634e487b7160e01b600052601260045260246000fd5b500490565b6000821982111561221b5761221b6120aa565b500190565b60208082526024908201527f4572723a20436f6e7472616374732062616c616e6365206e6f7420496e637265604082015263185cd95960e21b606082015260800190565b600181811c9082168061227857607f821691505b60208210810361229857634e487b7160e01b600052602260045260246000fd5b50919050565b601f8211156122e857600081815260208120601f850160051c810160208610156122c55750805b601f850160051c820191505b818110156122e4578281556001016122d1565b5050505b505050565b815167ffffffffffffffff81111561230757612307611f77565b61231b816123158454612264565b8461229e565b602080601f83116001811461235057600084156123385750858301515b600019600386901b1c1916600185901b1785556122e4565b600085815260208120601f198616915b8281101561237f57888601518255948401946001909101908401612360565b508582101561239d5787850151600019600388901b60f8161c191681555b5050505050600190811b0190555056fea26469706673582212206975be526231ab9a754ed265fbf434cef302fa6ed043bcd8a5e3f6913bd1c8ef64736f6c634300080f0033",
    "linkReferences": {}
  },
  "methodIdentifiers": {
    "acceptedToken1()": "bf7788a7",
    "acceptedToken2()": "e28f765c",
    "acceptedToken3()": "234471d2",
    "amountDepositedacceptedToken1()": "b50dd29f",
    "amountDepositedacceptedToken2()": "7b54083a",
    "amountDepositedacceptedToken3()": "65882cd4",
    "amountTuinOut(address,address,uint256)": "2fad58b3",
    "amountWithdrawnacceptedToken1()": "0cd5df72",
    "amountWithdrawnacceptedToken2()": "54331323",
    "amountWithdrawnacceptedToken3()": "6b6d7ba2",
    "amountYieldDepositedacceptedToken()": "ba2bbf04",
    "approveYield(bool)": "ee72aef3",
    "balanceTknIn(address)": "9dcba70a",
    "deploymentChainId()": "cd0d0096",
    "depositYieldToken(address,uint256)": "f28e79a3",
    "exchangeRateTuin()": "51dfe0eb",
    "exchangeRateUsd()": "b2817bbe",
    "isApproved()": "28f371aa",
    "isPaused()": "b187bd26",
    "owner()": "8da5cb5b",
    "redeem(uint256,address,address)": "ba087652",
    "redeemableDate()": "d9b01824",
    "scaleYieldTo18(address,uint256)": "b03fec8b",
    "scaleYieldToDecimal(address,uint256)": "519824b0",
    "setAcceptedToken1(address)": "6ca5a9bb",
    "setAcceptedToken2(address)": "4619a066",
    "setAcceptedToken3(address)": "16119bba",
    "setExchangeRateTuin(uint256)": "a8364248",
    "setExchangeRateUsd(uint256)": "aabf8c3b",
    "setOwner(address)": "13af4035",
    "setPaused(bool)": "16c38b3c",
    "setRedeemableDate(string)": "f293b2ac",
    "setYieldToken(address)": "23ffce85",
    "swapIn(uint256,address,address)": "76b12882",
    "tuinHeld(address)": "708fd65b",
    "withdrawAcceptedToken(address,address,uint256)": "76908d9a",
    "yieldToken()": "76d5de85"
  },
  "id": 22
}