{
  "abi": [
    {
      "inputs": [],
      "stateMutability": "nonpayable",
      "type": "constructor"
    },
    {
      "inputs": [],
      "name": "acceptedToken1",
      "outputs": [
        {
          "internalType": "address",
          "name": "",
          "type": "address"
        }
      ],
      "stateMutability": "view",
      "type": "function"
    },
    {
      "inputs": [],
      "name": "acceptedToken2",
      "outputs": [
        {
          "internalType": "address",
          "name": "",
          "type": "address"
        }
      ],
      "stateMutability": "view",
      "type": "function"
    },
    {
      "inputs": [],
      "name": "acceptedToken3",
      "outputs": [
        {
          "internalType": "address",
          "name": "",
          "type": "address"
        }
      ],
      "stateMutability": "view",
      "type": "function"
    },
    {
      "inputs": [],
      "name": "amountDepositedacceptedToken1",
      "outputs": [
        {
          "internalType": "uint256",
          "name": "",
          "type": "uint256"
        }
      ],
      "stateMutability": "view",
      "type": "function"
    },
    {
      "inputs": [],
      "name": "amountDepositedacceptedToken2",
      "outputs": [
        {
          "internalType": "uint256",
          "name": "",
          "type": "uint256"
        }
      ],
      "stateMutability": "view",
      "type": "function"
    },
    {
      "inputs": [],
      "name": "amountDepositedacceptedToken3",
      "outputs": [
        {
          "internalType": "uint256",
          "name": "",
          "type": "uint256"
        }
      ],
      "stateMutability": "view",
      "type": "function"
    },
    {
      "inputs": [
        {
          "internalType": "address",
          "name": "_tokenIn",
          "type": "address"
        },
        {
          "internalType": "address",
          "name": "_tokenOut",
          "type": "address"
        },
        {
          "internalType": "uint256",
          "name": "_amountIn",
          "type": "uint256"
        }
      ],
      "name": "amountTuinOut",
      "outputs": [
        {
          "internalType": "uint256",
          "name": "_amountTuinOut",
          "type": "uint256"
        }
      ],
      "stateMutability": "view",
      "type": "function"
    },
    {
      "inputs": [],
      "name": "amountWithdrawnacceptedToken1",
      "outputs": [
        {
          "internalType": "uint256",
          "name": "",
          "type": "uint256"
        }
      ],
      "stateMutability": "view",
      "type": "function"
    },
    {
      "inputs": [],
      "name": "amountWithdrawnacceptedToken2",
      "outputs": [
        {
          "internalType": "uint256",
          "name": "",
          "type": "uint256"
        }
      ],
      "stateMutability": "view",
      "type": "function"
    },
    {
      "inputs": [],
      "name": "amountWithdrawnacceptedToken3",
      "outputs": [
        {
          "internalType": "uint256",
          "name": "",
          "type": "uint256"
        }
      ],
      "stateMutability": "view",
      "type": "function"
    },
    {
      "inputs": [],
      "name": "amountYieldDepositedacceptedToken",
      "outputs": [
        {
          "internalType": "uint256",
          "name": "",
          "type": "uint256"
        }
      ],
      "stateMutability": "view",
      "type": "function"
    },
    {
      "inputs": [
        {
          "internalType": "bool",
          "name": "_isApproved",
          "type": "bool"
        }
      ],
      "name": "approveYield",
      "outputs": [],
      "stateMutability": "nonpayable",
      "type": "function"
    },
    {
      "inputs": [],
      "name": "deploymentChainId",
      "outputs": [
        {
          "internalType": "uint256",
          "name": "",
          "type": "uint256"
        }
      ],
      "stateMutability": "view",
      "type": "function"
    },
    {
      "inputs": [
        {
          "internalType": "address",
          "name": "_tokenIn",
          "type": "address"
        },
        {
          "internalType": "uint256",
          "name": "_amountIn",
          "type": "uint256"
        }
      ],
      "name": "depositYieldToken",
      "outputs": [],
      "stateMutability": "nonpayable",
      "type": "function"
    },
    {
      "inputs": [],
      "name": "exchangeRateTuin",
      "outputs": [
        {
          "internalType": "uint256",
          "name": "",
          "type": "uint256"
        }
      ],
      "stateMutability": "view",
      "type": "function"
    },
    {
      "inputs": [],
      "name": "exchangeRateUsd",
      "outputs": [
        {
          "internalType": "uint256",
          "name": "",
          "type": "uint256"
        }
      ],
      "stateMutability": "view",
      "type": "function"
    },
    {
      "inputs": [],
      "name": "isApproved",
      "outputs": [
        {
          "internalType": "bool",
          "name": "",
          "type": "bool"
        }
      ],
      "stateMutability": "view",
      "type": "function"
    },
    {
      "inputs": [],
      "name": "isPaused",
      "outputs": [
        {
          "internalType": "bool",
          "name": "",
          "type": "bool"
        }
      ],
      "stateMutability": "view",
      "type": "function"
    },
    {
      "inputs": [],
      "name": "owner",
      "outputs": [
        {
          "internalType": "address",
          "name": "",
          "type": "address"
        }
      ],
      "stateMutability": "view",
      "type": "function"
    },
    {
      "inputs": [
        {
          "internalType": "uint256",
          "name": "_amountIn",
          "type": "uint256"
        },
        {
          "internalType": "address",
          "name": "_tuinToken",
          "type": "address"
        },
        {
          "internalType": "address",
          "name": "_yieldAddress",
          "type": "address"
        }
      ],
      "name": "redeem",
      "outputs": [],
      "stateMutability": "nonpayable",
      "type": "function"
    },
    {
      "inputs": [],
      "name": "redeemableDate",
      "outputs": [
        {
          "internalType": "string",
          "name": "",
          "type": "string"
        }
      ],
      "stateMutability": "view",
      "type": "function"
    },
    {
      "inputs": [
        {
          "internalType": "address",
          "name": "_tokenIn",
          "type": "address"
        },
        {
          "internalType": "uint256",
          "name": "_amountIn",
          "type": "uint256"
        }
      ],
      "name": "scaleYieldTo18",
      "outputs": [
        {
          "internalType": "uint256",
          "name": "",
          "type": "uint256"
        }
      ],
      "stateMutability": "view",
      "type": "function"
    },
    {
      "inputs": [
        {
          "internalType": "address",
          "name": "_tokenIn",
          "type": "address"
        },
        {
          "internalType": "uint256",
          "name": "_amountIn",
          "type": "uint256"
        }
      ],
      "name": "scaleYieldToDecimal",
      "outputs": [
        {
          "internalType": "uint256",
          "name": "",
          "type": "uint256"
        }
      ],
      "stateMutability": "view",
      "type": "function"
    },
    {
      "inputs": [
        {
          "internalType": "address",
          "name": "_token1",
          "type": "address"
        }
      ],
      "name": "setAcceptedToken1",
      "outputs": [],
      "stateMutability": "nonpayable",
      "type": "function"
    },
    {
      "inputs": [
        {
          "internalType": "address",
          "name": "_token2",
          "type": "address"
        }
      ],
      "name": "setAcceptedToken2",
      "outputs": [],
      "stateMutability": "nonpayable",
      "type": "function"
    },
    {
      "inputs": [
        {
          "internalType": "address",
          "name": "_token3",
          "type": "address"
        }
      ],
      "name": "setAcceptedToken3",
      "outputs": [],
      "stateMutability": "nonpayable",
      "type": "function"
    },
    {
      "inputs": [
        {
          "internalType": "uint256",
          "name": "_rate",
          "type": "uint256"
        }
      ],
      "name": "setExchangeRateTuin",
      "outputs": [
        {
          "internalType": "bool",
          "name": "success",
          "type": "bool"
        }
      ],
      "stateMutability": "nonpayable",
      "type": "function"
    },
    {
      "inputs": [
        {
          "internalType": "uint256",
          "name": "_rate",
          "type": "uint256"
        }
      ],
      "name": "setExchangeRateUsd",
      "outputs": [
        {
          "internalType": "bool",
          "name": "success",
          "type": "bool"
        }
      ],
      "stateMutability": "nonpayable",
      "type": "function"
    },
    {
      "inputs": [
        {
          "internalType": "address",
          "name": "_surryWallet",
          "type": "address"
        }
      ],
      "name": "setOwner",
      "outputs": [],
      "stateMutability": "nonpayable",
      "type": "function"
    },
    {
      "inputs": [
        {
          "internalType": "bool",
          "name": "_isPaused",
          "type": "bool"
        }
      ],
      "name": "setPaused",
      "outputs": [],
      "stateMutability": "nonpayable",
      "type": "function"
    },
    {
      "inputs": [
        {
          "internalType": "string",
          "name": "_date",
          "type": "string"
        }
      ],
      "name": "setRedeemableDate",
      "outputs": [],
      "stateMutability": "nonpayable",
      "type": "function"
    },
    {
      "inputs": [
        {
          "internalType": "address",
          "name": "_yieldToken",
          "type": "address"
        }
      ],
      "name": "setYieldToken",
      "outputs": [],
      "stateMutability": "nonpayable",
      "type": "function"
    },
    {
      "inputs": [
        {
          "internalType": "uint256",
          "name": "_amountIn",
          "type": "uint256"
        },
        {
          "internalType": "address",
          "name": "_tokenIn",
          "type": "address"
        },
        {
          "internalType": "address",
          "name": "_tokenOut",
          "type": "address"
        }
      ],
      "name": "swapIn",
      "outputs": [
        {
          "internalType": "bool",
          "name": "",
          "type": "bool"
        }
      ],
      "stateMutability": "nonpayable",
      "type": "function"
    },
    {
      "inputs": [
        {
          "internalType": "address",
          "name": "tuinToken",
          "type": "address"
        }
      ],
      "name": "tuinHeld",
      "outputs": [
        {
          "internalType": "uint256",
          "name": "amountHeld",
          "type": "uint256"
        }
      ],
      "stateMutability": "view",
      "type": "function"
    },
    {
      "inputs": [
        {
          "internalType": "address",
          "name": "_tokenIn",
          "type": "address"
        },
        {
          "internalType": "address",
          "name": "_to",
          "type": "address"
        },
        {
          "internalType": "uint256",
          "name": "_amountOut",
          "type": "uint256"
        }
      ],
      "name": "withdrawAcceptedToken",
      "outputs": [],
      "stateMutability": "nonpayable",
      "type": "function"
    },
    {
      "inputs": [
        {
          "internalType": "address",
          "name": "_tokenIn",
          "type": "address"
        },
        {
          "internalType": "address",
          "name": "_to",
          "type": "address"
        }
      ],
      "name": "withdrawBalanceAcceptedToken",
      "outputs": [],
      "stateMutability": "nonpayable",
      "type": "function"
    },
    {
      "inputs": [],
      "name": "yieldToken",
      "outputs": [
        {
          "internalType": "address",
          "name": "",
          "type": "address"
        }
      ],
      "stateMutability": "view",
      "type": "function"
    }
  ],
  "bytecode": {
    "object": "0x60a060405234801561001057600080fd5b5046608052600080546001600160a01b031916331790556080516123d9610042600039600061044701526123d96000f3fe608060405234801561001057600080fd5b50600436106102275760003560e01c806376d5de8511610130578063ba087652116100b8578063e28f765c1161007c578063e28f765c1461047e578063ee14cb4414610491578063ee72aef3146104a4578063f28e79a3146104b7578063f293b2ac146104ca57600080fd5b8063ba08765214610413578063ba2bbf0414610426578063bf7788a71461042f578063cd0d009614610442578063d9b018241461046957600080fd5b8063aabf8c3b116100ff578063aabf8c3b146103c9578063b03fec8b146103dc578063b187bd26146103ef578063b2817bbe14610401578063b50dd29f1461040a57600080fd5b806376d5de85146103875780637b54083a1461039a5780638da5cb5b146103a3578063a8364248146103b657600080fd5b8063519824b0116101b35780636b6d7ba2116101825780636b6d7ba2146103325780636ca5a9bb1461033b578063708fd65b1461034e57806376908d9a1461036157806376b128821461037457600080fd5b8063519824b01461030457806351dfe0eb14610317578063543313231461032057806365882cd41461032957600080fd5b8063234471d2116101fa578063234471d21461028357806323ffce85146102ae57806328f371aa146102c15780632fad58b3146102de5780634619a066146102f157600080fd5b80630cd5df721461022c57806313af40351461024857806316119bba1461025d57806316c38b3c14610270575b600080fd5b61023560085481565b6040519081526020015b60405180910390f35b61025b610256366004611ddd565b6104dd565b005b61025b61026b366004611ddd565b610516565b61025b61027e366004611dff565b61054f565b600354610296906001600160a01b031681565b6040516001600160a01b03909116815260200161023f565b61025b6102bc366004611ddd565b610580565b600d546102ce9060ff1681565b604051901515815260200161023f565b6102356102ec366004611e21565b61061f565b61025b6102ff366004611ddd565b610824565b610235610312366004611e5d565b61085d565b610235600e5481565b61023560095481565b61023560075481565b610235600a5481565b61025b610349366004611ddd565b6109b1565b61023561035c366004611ddd565b6109ea565b61025b61036f366004611e21565b610afd565b6102ce610382366004611e87565b610c36565b600454610296906001600160a01b031681565b61023560065481565b600054610296906001600160a01b031681565b6102ce6103c4366004611ec3565b611144565b6102ce6103d7366004611ec3565b6111ba565b6102356103ea366004611e5d565b61122b565b600d546102ce90610100900460ff1681565b610235600f5481565b61023560055481565b61025b610421366004611e87565b611346565b610235600b5481565b600154610296906001600160a01b031681565b6102357f000000000000000000000000000000000000000000000000000000000000000081565b6104716118ea565b60405161023f9190611f08565b600254610296906001600160a01b031681565b61025b61049f366004611f3b565b611978565b61025b6104b2366004611dff565b6119ac565b61025b6104c5366004611e5d565b6119d6565b61025b6104d8366004611f84565b611bbc565b6000546001600160a01b031633146104f457600080fd5b600080546001600160a01b0319166001600160a01b0392909216919091179055565b6000546001600160a01b0316331461052d57600080fd5b600380546001600160a01b0319166001600160a01b0392909216919091179055565b6000546001600160a01b0316331461056657600080fd5b600d80549115156101000261ff0019909216919091179055565b6000546001600160a01b0316331461059757600080fd5b6001546001600160a01b03828116911614806105c057506002546001600160a01b038281169116145b806105d857506003546001600160a01b038281169116145b6105fd5760405162461bcd60e51b81526004016105f490612035565b60405180910390fd5b600480546001600160a01b0319166001600160a01b0392909216919091179055565b60408051600481526024810182526020810180516001600160e01b031663313ce56760e01b1790529051600091829182916001600160a01b03881691610665919061206c565b600060405180830381855afa9150503d80600081146106a0576040519150601f19603f3d011682016040523d82523d6000602084013e6106a5565b606091505b50915091508180156106b957506020815110155b6106c257600080fd5b6000818060200190518101906106d89190612088565b60408051600481526024810182526020810180516001600160e01b031663313ce56760e01b179052905191925060009182916001600160a01b038a169161071f919061206c565b600060405180830381855afa9150503d806000811461075a576040519150601f19603f3d011682016040523d82523d6000602084013e61075f565b606091505b509150915081801561077357506020815110155b61077c57600080fd5b6000818060200190518101906107929190612088565b90506000818511156107cf576107a882866120b7565b90506107b581600a6121b2565b600e546107c2908b6121be565b6107cc91906121dd565b97505b6107d985836120b7565b90508015610808576107ec81600a6121b2565b600e546107f9908b6121be565b61080391906121be565b610815565b600e54610815908a6121be565b9b9a5050505050505050505050565b6000546001600160a01b0316331461083b57600080fd5b600280546001600160a01b0319166001600160a01b0392909216919091179055565b60408051600481526024810182526020810180516001600160e01b031663313ce56760e01b1790529051600091829182916001600160a01b038716916108a3919061206c565b600060405180830381855afa9150503d80600081146108de576040519150601f19603f3d011682016040523d82523d6000602084013e6108e3565b606091505b50915091508180156108f757506020815110155b61090057600080fd5b6000818060200190518101906109169190612088565b90506000601282111561095d5761092e6012836120b7565b905061093b81600a6121b2565b600f5461094890886121be565b61095291906121be565b9450505050506109ab565b6109688260126120b7565b905080156109975761097b81600a6121b2565b600f5461098890886121be565b61099291906121dd565b6109a4565b600f546109a490876121be565b9450505050505b92915050565b6000546001600160a01b031633146109c857600080fd5b600180546001600160a01b0319166001600160a01b0392909216919091179055565b604080513060248083019190915282518083039091018152604490910182526020810180516001600160e01b03166370a0823160e01b1790529051600091829182916001600160a01b03861691610a41919061206c565b600060405180830381855afa9150503d8060008114610a7c576040519150601f19603f3d011682016040523d82523d6000602084013e610a81565b606091505b5091509150818015610a9557506020815110155b610ae15760405162461bcd60e51b815260206004820152601b60248201527f4572723a20436f756c646e277420676574205475696e2068656c64000000000060448201526064016105f4565b80806020019051810190610af59190612088565b949350505050565b6000546001600160a01b03163314610b1457600080fd5b604080516001600160a01b038481166024830152604480830185905283518084039091018152606490920183526020820180516001600160e01b031663a9059cbb60e01b1790529151600092839290871691610b70919061206c565b6000604051808303816000865af19150503d8060008114610bad576040519150601f19603f3d011682016040523d82523d6000602084013e610bb2565b606091505b5091509150818015610bc657506020815110155b610c255760405162461bcd60e51b815260206004820152602a60248201527f4572723a20436f756c646e2774207769746864726177206163636570746564206044820152691d1bdad95b881a195b1960b21b60648201526084016105f4565b610c2f8584611be3565b5050505050565b600d54600090610100900460ff1615610c8b5760405162461bcd60e51b8152602060048201526017602482015276115c9c8e8818dbdb9d1c9858dd081a5cc81c185d5cd959604a1b60448201526064016105f4565b60008411610cd15760405162461bcd60e51b815260206004820152601360248201527204552523a205f616d6f756e74496e206973203606c1b60448201526064016105f4565b6001546001600160a01b0384811691161480610cfa57506002546001600160a01b038481169116145b80610d1257506003546001600160a01b038481169116145b610d5e5760405162461bcd60e51b815260206004820152601760248201527f4552523a204e6f7420616363657074656420746f6b656e00000000000000000060448201526064016105f4565b6001546001600160a01b0316151580610d8157506002546001600160a01b031615155b80610d9657506003546001600160a01b031615155b610de25760405162461bcd60e51b815260206004820152601c60248201527f4552523a20416363657074656420746f6b656e73206e6f74207365740000000060448201526064016105f4565b6001600160a01b038316610e385760405162461bcd60e51b815260206004820152601760248201527f4552523a20546f6b656e496e206164647265737328302900000000000000000060448201526064016105f4565b6000610e4384611c70565b60408051336024820152306044820152606480820189905282518083039091018152608490910182526020810180516001600160e01b03166323b872dd60e01b179052905191925060009182916001600160a01b03881691610ea5919061206c565b6000604051808303816000865af19150503d8060008114610ee2576040519150601f19603f3d011682016040523d82523d6000602084013e610ee7565b606091505b5091509150818015610efb57506020815110155b610f475760405162461bcd60e51b815260206004820152601a60248201527f4572723a20436f756c646e2774205472616e7366657246726f6d00000000000060448201526064016105f4565b6000610f5287611c70565b905080610f5f89866121ff565b1015610f7d5760405162461bcd60e51b81526004016105f490612217565b600e54600003610fcf5760405162461bcd60e51b815260206004820152601a60248201527f4572723a2065786368616e67652072617465206e6f742073657400000000000060448201526064016105f4565b6000610fdc88888b61061f565b905080610fe8886109ea565b101561102f5760405162461bcd60e51b81526020600482015260166024820152754572723a205475696e204c656674206973204c65737360501b60448201526064016105f4565b60408051336024820152604480820184905282518083039091018152606490910182526020810180516001600160e01b031663a9059cbb60e01b179052905160009182916001600160a01b038b16916110879161206c565b6000604051808303816000865af19150503d80600081146110c4576040519150601f19603f3d011682016040523d82523d6000602084013e6110c9565b606091505b50915091508180156110dd57506020815110155b6111295760405162461bcd60e51b815260206004820152601a60248201527f4572723a20436f756c646e2774205472616e73666572204f757400000000000060448201526064016105f4565b6111338a8c611d24565b5060019a9950505050505050505050565b600080546001600160a01b0316331461115c57600080fd5b816000036111ac5760405162461bcd60e51b815260206004820152601d60248201527f726174652073686f756c642062652067726561746572207468616e203000000060448201526064016105f4565b50600e81905560015b919050565b600080546001600160a01b031633146111d257600080fd5b816000036112225760405162461bcd60e51b815260206004820152601d60248201527f726174652073686f756c642062652067726561746572207468616e203000000060448201526064016105f4565b50600f55600190565b60408051600481526024810182526020810180516001600160e01b031663313ce56760e01b1790529051600091829182916001600160a01b03871691611271919061206c565b600060405180830381855afa9150503d80600081146112ac576040519150601f19603f3d011682016040523d82523d6000602084013e6112b1565b606091505b50915091508180156112c557506020815110155b6112ce57600080fd5b6000818060200190518101906112e49190612088565b905060006012821115611313576112fc6012836120b7565b905061130981600a6121b2565b61095290876121dd565b61131e8260126120b7565b9050801561133b5761133181600a6121b2565b61099290876121be565b509395945050505050565b600d54610100900460ff16156113985760405162461bcd60e51b8152602060048201526017602482015276115c9c8e8818dbdb9d1c9858dd081a5cc81c185d5cd959604a1b60448201526064016105f4565b826000036113e85760405162461bcd60e51b815260206004820152601e60248201527f4572723a2063616e6e6f742072656465656d207a65726f20616d6f756e74000060448201526064016105f4565b6001600160a01b0381166114335760405162461bcd60e51b8152602060048201526012602482015271115c9c8e881e5a595b19081b9bdd081cd95d60721b60448201526064016105f4565b6001546001600160a01b038281169116148061145c57506002546001600160a01b038281169116145b8061147457506003546001600160a01b038281169116145b6114905760405162461bcd60e51b81526004016105f490612035565b600d5460ff1615156000036114f75760405162461bcd60e51b815260206004820152602760248201527f4572723a207374696c6c2067656e65726174696e67207969656c642c20636865604482015266636b206261636b60c81b60648201526084016105f4565b600061150283611c70565b60408051336024820152306044820152606480820188905282518083039091018152608490910182526020810180516001600160e01b03166323b872dd60e01b179052905191925060009182916001600160a01b03871691611564919061206c565b6000604051808303816000865af19150503d80600081146115a1576040519150601f19603f3d011682016040523d82523d6000602084013e6115a6565b606091505b50915091508180156115ba57506020815110155b6116065760405162461bcd60e51b815260206004820152601a60248201527f4572723a20436f756c646e2774205472616e7366657246726f6d00000000000060448201526064016105f4565b600061161186611c70565b90508061161e88866121ff565b101561163c5760405162461bcd60e51b81526004016105f490612217565b6040513060248201526044810188905260009081906001600160a01b0389169060640160408051601f198184030181529181526020820180516001600160e01b0316632770a7eb60e21b17905251611694919061206c565b6000604051808303816000865af19150503d80600081146116d1576040519150601f19603f3d011682016040523d82523d6000602084013e6116d6565b606091505b50915091508180156116ea57506020815110155b61172b5760405162461bcd60e51b815260206004820152601260248201527122b9391d1021b7bab6323713ba10213ab93760711b60448201526064016105f4565b600f5460000361177d5760405162461bcd60e51b815260206004820152601a60248201527f4572723a2065786368616e67652072617465206e6f742073657400000000000060448201526064016105f4565b6000611789888b61085d565b6004549091506001600160a01b038981169116146117e25760405162461bcd60e51b81526020600482015260166024820152754572723a206e6f74207969656c64206164647265737360501b60448201526064016105f4565b60408051336024820152604480820184905282518083039091018152606490910182526020810180516001600160e01b031663a9059cbb60e01b179052905160009182916001600160a01b038c169161183a9161206c565b6000604051808303816000865af19150503d8060008114611877576040519150601f19603f3d011682016040523d82523d6000602084013e61187c565b606091505b509150915081801561189057506020815110155b6118dc5760405162461bcd60e51b815260206004820152601860248201527f4572723a205452414e534645525f4f55545f4641494c4544000000000000000060448201526064016105f4565b505050505050505050505050565b600c80546118f79061225b565b80601f01602080910402602001604051908101604052809291908181526020018280546119239061225b565b80156119705780601f1061194557610100808354040283529160200191611970565b820191906000526020600020905b81548152906001019060200180831161195357829003601f168201915b505050505081565b6000546001600160a01b0316331461198f57600080fd5b600061199a83611c70565b90506119a7838383610afd565b505050565b6000546001600160a01b031633146119c357600080fd5b600d805460ff1916911515919091179055565b6000546001600160a01b031633146119ed57600080fd5b6001546001600160a01b0383811691161480611a1657506002546001600160a01b038381169116145b80611a2e57506003546001600160a01b038381169116145b611a4a5760405162461bcd60e51b81526004016105f490612035565b6001600160a01b038216611aa05760405162461bcd60e51b815260206004820152601760248201527f4572723a20546f6b656e496e206164647265737328302900000000000000000060448201526064016105f4565b60408051336024820152306044820152606480820184905282518083039091018152608490910182526020810180516001600160e01b03166323b872dd60e01b179052905160009182916001600160a01b03861691611afe9161206c565b6000604051808303816000865af19150503d8060008114611b3b576040519150601f19603f3d011682016040523d82523d6000602084013e611b40565b606091505b5091509150818015611b5457506020815110155b611bac5760405162461bcd60e51b8152602060048201526024808201527f4572723a20436f756c646e2774206465706f736974206163636570746564207460448201526337b5b2b760e11b60648201526084016105f4565b611bb68484611da8565b50505050565b6000546001600160a01b03163314611bd357600080fd5b600c611bdf82826122e3565b5050565b6001546001600160a01b0390811690831603611c11578060086000828254611c0b91906121ff565b90915550505b6002546001600160a01b0390811690831603611c3f578060096000828254611c3991906121ff565b90915550505b6003546001600160a01b0390811690831603611bdf5780600a6000828254611c6791906121ff565b90915550505050565b604080513060248083019190915282518083039091018152604490910182526020810180516001600160e01b03166370a0823160e01b1790529051600091829182916001600160a01b03861691611cc7919061206c565b600060405180830381855afa9150503d8060008114611d02576040519150601f19603f3d011682016040523d82523d6000602084013e611d07565b606091505b5091509150818015611d1b57506020815110155b610ae157600080fd5b6001546001600160a01b0390811690831603611d52578060056000828254611d4c91906121ff565b90915550505b6002546001600160a01b0390811690831603611d80578060066000828254611d7a91906121ff565b90915550505b6003546001600160a01b0390811690831603611bdf578060076000828254611c6791906121ff565b611db2828261122b565b905080600b6000828254611c6791906121ff565b80356001600160a01b03811681146111b557600080fd5b600060208284031215611def57600080fd5b611df882611dc6565b9392505050565b600060208284031215611e1157600080fd5b81358015158114611df857600080fd5b600080600060608486031215611e3657600080fd5b611e3f84611dc6565b9250611e4d60208501611dc6565b9150604084013590509250925092565b60008060408385031215611e7057600080fd5b611e7983611dc6565b946020939093013593505050565b600080600060608486031215611e9c57600080fd5b83359250611eac60208501611dc6565b9150611eba60408501611dc6565b90509250925092565b600060208284031215611ed557600080fd5b5035919050565b60005b83811015611ef7578181015183820152602001611edf565b83811115611bb65750506000910152565b6020815260008251806020840152611f27816040850160208701611edc565b601f01601f19169190910160400192915050565b60008060408385031215611f4e57600080fd5b611f5783611dc6565b9150611f6560208401611dc6565b90509250929050565b634e487b7160e01b600052604160045260246000fd5b600060208284031215611f9657600080fd5b813567ffffffffffffffff80821115611fae57600080fd5b818401915084601f830112611fc257600080fd5b813581811115611fd457611fd4611f6e565b604051601f8201601f19908116603f01168101908382118183101715611ffc57611ffc611f6e565b8160405282815287602084870101111561201557600080fd5b826020860160208301376000928101602001929092525095945050505050565b60208082526017908201527f4572723a204e6f7420616363657074656420746f6b656e000000000000000000604082015260600190565b6000825161207e818460208701611edc565b9190910192915050565b60006020828403121561209a57600080fd5b5051919050565b634e487b7160e01b600052601160045260246000fd5b6000828210156120c9576120c96120a1565b500390565b600181815b808511156121095781600019048211156120ef576120ef6120a1565b808516156120fc57918102915b93841c93908002906120d3565b509250929050565b600082612120575060016109ab565b8161212d575060006109ab565b8160018114612143576002811461214d57612169565b60019150506109ab565b60ff84111561215e5761215e6120a1565b50506001821b6109ab565b5060208310610133831016604e8410600b841016171561218c575081810a6109ab565b61219683836120ce565b80600019048211156121aa576121aa6120a1565b029392505050565b6000611df88383612111565b60008160001904831182151516156121d8576121d86120a1565b500290565b6000826121fa57634e487b7160e01b600052601260045260246000fd5b500490565b60008219821115612212576122126120a1565b500190565b60208082526024908201527f4572723a20436f6e7472616374732062616c616e6365206e6f7420496e637265604082015263185cd95960e21b606082015260800190565b600181811c9082168061226f57607f821691505b60208210810361228f57634e487b7160e01b600052602260045260246000fd5b50919050565b601f8211156119a757600081815260208120601f850160051c810160208610156122bc5750805b601f850160051c820191505b818110156122db578281556001016122c8565b505050505050565b815167ffffffffffffffff8111156122fd576122fd611f6e565b6123118161230b845461225b565b84612295565b602080601f831160018114612346576000841561232e5750858301515b600019600386901b1c1916600185901b1785556122db565b600085815260208120601f198616915b8281101561237557888601518255948401946001909101908401612356565b50858210156123935787850151600019600388901b60f8161c191681555b5050505050600190811b0190555056fea2646970667358221220b542224340e5ba1068b0087cf6ba468738584a81572a749224b480acd457326264736f6c634300080f0033",
    "linkReferences": {}
  },
  "methodIdentifiers": {
    "acceptedToken1()": "bf7788a7",
    "acceptedToken2()": "e28f765c",
    "acceptedToken3()": "234471d2",
    "amountDepositedacceptedToken1()": "b50dd29f",
    "amountDepositedacceptedToken2()": "7b54083a",
    "amountDepositedacceptedToken3()": "65882cd4",
    "amountTuinOut(address,address,uint256)": "2fad58b3",
    "amountWithdrawnacceptedToken1()": "0cd5df72",
    "amountWithdrawnacceptedToken2()": "54331323",
    "amountWithdrawnacceptedToken3()": "6b6d7ba2",
    "amountYieldDepositedacceptedToken()": "ba2bbf04",
    "approveYield(bool)": "ee72aef3",
    "deploymentChainId()": "cd0d0096",
    "depositYieldToken(address,uint256)": "f28e79a3",
    "exchangeRateTuin()": "51dfe0eb",
    "exchangeRateUsd()": "b2817bbe",
    "isApproved()": "28f371aa",
    "isPaused()": "b187bd26",
    "owner()": "8da5cb5b",
    "redeem(uint256,address,address)": "ba087652",
    "redeemableDate()": "d9b01824",
    "scaleYieldTo18(address,uint256)": "b03fec8b",
    "scaleYieldToDecimal(address,uint256)": "519824b0",
    "setAcceptedToken1(address)": "6ca5a9bb",
    "setAcceptedToken2(address)": "4619a066",
    "setAcceptedToken3(address)": "16119bba",
    "setExchangeRateTuin(uint256)": "a8364248",
    "setExchangeRateUsd(uint256)": "aabf8c3b",
    "setOwner(address)": "13af4035",
    "setPaused(bool)": "16c38b3c",
    "setRedeemableDate(string)": "f293b2ac",
    "setYieldToken(address)": "23ffce85",
    "swapIn(uint256,address,address)": "76b12882",
    "tuinHeld(address)": "708fd65b",
    "withdrawAcceptedToken(address,address,uint256)": "76908d9a",
    "withdrawBalanceAcceptedToken(address,address)": "ee14cb44",
    "yieldToken()": "76d5de85"
  },
  "id": 16
}