{
  "abi": [
    {
      "inputs": [],
      "stateMutability": "nonpayable",
      "type": "constructor"
    },
    {
      "inputs": [],
      "name": "acceptedToken1",
      "outputs": [
        {
          "internalType": "address",
          "name": "",
          "type": "address"
        }
      ],
      "stateMutability": "view",
      "type": "function"
    },
    {
      "inputs": [],
      "name": "acceptedToken2",
      "outputs": [
        {
          "internalType": "address",
          "name": "",
          "type": "address"
        }
      ],
      "stateMutability": "view",
      "type": "function"
    },
    {
      "inputs": [],
      "name": "acceptedToken3",
      "outputs": [
        {
          "internalType": "address",
          "name": "",
          "type": "address"
        }
      ],
      "stateMutability": "view",
      "type": "function"
    },
    {
      "inputs": [
        {
          "internalType": "bool",
          "name": "_isApproved",
          "type": "bool"
        }
      ],
      "name": "approveYield",
      "outputs": [],
      "stateMutability": "nonpayable",
      "type": "function"
    },
    {
      "inputs": [],
      "name": "deploymentChainId",
      "outputs": [
        {
          "internalType": "uint256",
          "name": "",
          "type": "uint256"
        }
      ],
      "stateMutability": "view",
      "type": "function"
    },
    {
      "inputs": [
        {
          "internalType": "address",
          "name": "_yieldAddress",
          "type": "address"
        },
        {
          "internalType": "uint256",
          "name": "amountIn",
          "type": "uint256"
        }
      ],
      "name": "depositYield",
      "outputs": [],
      "stateMutability": "nonpayable",
      "type": "function"
    },
    {
      "inputs": [],
      "name": "exchangeRate",
      "outputs": [
        {
          "internalType": "uint256",
          "name": "",
          "type": "uint256"
        }
      ],
      "stateMutability": "view",
      "type": "function"
    },
    {
      "inputs": [],
      "name": "isApproved",
      "outputs": [
        {
          "internalType": "bool",
          "name": "",
          "type": "bool"
        }
      ],
      "stateMutability": "view",
      "type": "function"
    },
    {
      "inputs": [],
      "name": "owner",
      "outputs": [
        {
          "internalType": "address",
          "name": "",
          "type": "address"
        }
      ],
      "stateMutability": "view",
      "type": "function"
    },
    {
      "inputs": [
        {
          "internalType": "uint256",
          "name": "amountIn",
          "type": "uint256"
        },
        {
          "internalType": "address",
          "name": "tuinToken",
          "type": "address"
        },
        {
          "internalType": "address",
          "name": "_yieldAddress",
          "type": "address"
        },
        {
          "internalType": "bool",
          "name": "isEth",
          "type": "bool"
        }
      ],
      "name": "redeem",
      "outputs": [],
      "stateMutability": "nonpayable",
      "type": "function"
    },
    {
      "inputs": [],
      "name": "redeemableDate",
      "outputs": [
        {
          "internalType": "string",
          "name": "",
          "type": "string"
        }
      ],
      "stateMutability": "view",
      "type": "function"
    },
    {
      "inputs": [
        {
          "internalType": "address",
          "name": "_token1",
          "type": "address"
        }
      ],
      "name": "setAcceptedToken1",
      "outputs": [],
      "stateMutability": "nonpayable",
      "type": "function"
    },
    {
      "inputs": [
        {
          "internalType": "address",
          "name": "_token2",
          "type": "address"
        }
      ],
      "name": "setAcceptedToken2",
      "outputs": [],
      "stateMutability": "nonpayable",
      "type": "function"
    },
    {
      "inputs": [
        {
          "internalType": "address",
          "name": "_token3",
          "type": "address"
        }
      ],
      "name": "setAcceptedToken3",
      "outputs": [],
      "stateMutability": "nonpayable",
      "type": "function"
    },
    {
      "inputs": [
        {
          "internalType": "uint256",
          "name": "_rate",
          "type": "uint256"
        }
      ],
      "name": "setExchangeRate",
      "outputs": [
        {
          "internalType": "bool",
          "name": "success",
          "type": "bool"
        }
      ],
      "stateMutability": "nonpayable",
      "type": "function"
    },
    {
      "inputs": [
        {
          "internalType": "address",
          "name": "_surryWallet",
          "type": "address"
        }
      ],
      "name": "setOwner",
      "outputs": [],
      "stateMutability": "nonpayable",
      "type": "function"
    },
    {
      "inputs": [
        {
          "internalType": "string",
          "name": "_date",
          "type": "string"
        }
      ],
      "name": "setRedeemableDate",
      "outputs": [],
      "stateMutability": "nonpayable",
      "type": "function"
    },
    {
      "inputs": [
        {
          "internalType": "address",
          "name": "_yieldAddress",
          "type": "address"
        }
      ],
      "name": "setYieldAddress",
      "outputs": [],
      "stateMutability": "nonpayable",
      "type": "function"
    },
    {
      "inputs": [
        {
          "internalType": "uint256",
          "name": "_amountIn",
          "type": "uint256"
        },
        {
          "internalType": "address",
          "name": "_tokenIn",
          "type": "address"
        },
        {
          "internalType": "address",
          "name": "_tokenOut",
          "type": "address"
        }
      ],
      "name": "swapIn",
      "outputs": [
        {
          "internalType": "uint256",
          "name": "amountOut",
          "type": "uint256"
        },
        {
          "internalType": "uint256",
          "name": "amountIn",
          "type": "uint256"
        }
      ],
      "stateMutability": "nonpayable",
      "type": "function"
    },
    {
      "inputs": [],
      "name": "totalYieldDerived",
      "outputs": [
        {
          "internalType": "uint256",
          "name": "",
          "type": "uint256"
        }
      ],
      "stateMutability": "view",
      "type": "function"
    },
    {
      "inputs": [
        {
          "internalType": "address",
          "name": "tuinToken",
          "type": "address"
        }
      ],
      "name": "tuinHeld",
      "outputs": [
        {
          "internalType": "uint256",
          "name": "amountHeld",
          "type": "uint256"
        }
      ],
      "stateMutability": "nonpayable",
      "type": "function"
    },
    {
      "inputs": [
        {
          "internalType": "address",
          "name": "_token",
          "type": "address"
        },
        {
          "internalType": "uint256",
          "name": "_amountOut",
          "type": "uint256"
        },
        {
          "internalType": "address",
          "name": "_wdrAddr",
          "type": "address"
        }
      ],
      "name": "withdrawTksSent",
      "outputs": [],
      "stateMutability": "nonpayable",
      "type": "function"
    },
    {
      "inputs": [],
      "name": "yieldAddress",
      "outputs": [
        {
          "internalType": "address",
          "name": "",
          "type": "address"
        }
      ],
      "stateMutability": "view",
      "type": "function"
    }
  ],
  "bytecode": {
    "object": "0x60a060405234801561001057600080fd5b5046608081905260008054610100600160a81b0319163361010002178155600380546001600160a01b031916905561173f90610056903960006102c4015261173f6000f3fe608060405234801561001057600080fd5b506004361061014d5760003560e01c80638407666b116100c3578063d69961851161007c578063d6996185146102e6578063d9b01824146102f9578063db068e0e1461030e578063e28f765c14610321578063ee72aef314610334578063f293b2ac1461034757600080fd5b80638407666b1461025b5780638da5cb5b1461026e578063affc492e14610286578063be4a0a1414610299578063bf7788a7146102ac578063cd0d0096146102bf57600080fd5b806328f371aa1161011557806328f371aa146101d45780633ba0b9a9146101f15780634619a066146101fa5780636ca5a9bb1461020d578063708fd65b1461022057806376b128821461023357600080fd5b80631323b5a41461015257806313af40351461016757806316119bba1461017a5780631af25abd1461018d578063234471d2146101a9575b600080fd5b61016561016036600461124f565b61035a565b005b61016561017536600461124f565b610398565b61016561018836600461124f565b6103dc565b61019660055481565b6040519081526020015b60405180910390f35b6003546101bc906001600160a01b031681565b6040516001600160a01b0390911681526020016101a0565b6000546101e19060ff1681565b60405190151581526020016101a0565b61019660065481565b61016561020836600461124f565b61041a565b61016561021b36600461124f565b610458565b61019661022e36600461124f565b610496565b610246610241366004611271565b610590565b604080519283526020830191909152016101a0565b6101656102693660046112ad565b6109a1565b6000546101bc9061010090046001600160a01b031681565b6004546101bc906001600160a01b031681565b6101656102a73660046112f1565b610aa8565b6001546101bc906001600160a01b031681565b6101967f000000000000000000000000000000000000000000000000000000000000000081565b6101656102f4366004611340565b610fab565b6103016110ca565b6040516101a0919061139a565b6101e161031c3660046113cd565b611158565b6002546101bc906001600160a01b031681565b6101656103423660046113e6565b6111dd565b610165610355366004611419565b61120c565b60005461010090046001600160a01b0316331461037657600080fd5b600480546001600160a01b0319166001600160a01b0392909216919091179055565b60005461010090046001600160a01b031633146103b457600080fd5b600080546001600160a01b0390921661010002610100600160a81b0319909216919091179055565b60005461010090046001600160a01b031633146103f857600080fd5b600380546001600160a01b0319166001600160a01b0392909216919091179055565b60005461010090046001600160a01b0316331461043657600080fd5b600280546001600160a01b0319166001600160a01b0392909216919091179055565b60005461010090046001600160a01b0316331461047457600080fd5b600180546001600160a01b0319166001600160a01b0392909216919091179055565b604080513060248083019190915282518083039091018152604490910182526020810180516001600160e01b03166370a0823160e01b1790529051600091829182916001600160a01b038616916104ed91906114ca565b6000604051808303816000865af19150503d806000811461052a576040519150601f19603f3d011682016040523d82523d6000602084013e61052f565b606091505b5091509150816105745760405162461bcd60e51b815260206004820152600b60248201526a18d85b1b0819985a5b195960aa1b60448201526064015b60405180910390fd5b8080602001905181019061058891906114e6565b949350505050565b60015460009081906001600160a01b03858116911614806105be57506002546001600160a01b038581169116145b806105d657506003546001600160a01b038581169116145b6106225760405162461bcd60e51b815260206004820152601d60248201527f4552524f523a206e6f742079657420616363657074656420746f6b656e000000604482015260640161056b565b6001546001600160a01b031615158061064557506002546001600160a01b031615155b6106915760405162461bcd60e51b815260206004820152601e60248201527f4552524f523a20616363657074656420746f6b656e73206e6f74207365740000604482015260640161056b565b600061069c84610496565b9050808611156106fd5760405162461bcd60e51b815260206004820152602660248201527f616d6f756e74496e206d757374206265206c657373207468616e20616d6f756e6044820152651d081a195b1960d21b606482015260840161056b565b60408051336024820152306044820152606480820189905282518083039091018152608490910182526020810180516001600160e01b03166323b872dd60e01b179052905160009182916001600160a01b0389169161075b916114ca565b6000604051808303816000865af19150503d8060008114610798576040519150601f19603f3d011682016040523d82523d6000602084013e61079d565b606091505b50915091508180156107c75750805115806107c75750808060200190518101906107c791906114ff565b6108135760405162461bcd60e51b815260206004820152601c60248201527f5455494e506f6f6c3a205452414e534645525f494e5f4641494c454400000000604482015260640161056b565b8793506006546000036108605760405162461bcd60e51b8152602060048201526015602482015274195e18da185b99d9481c985d19481b9bdd081cd95d605a1b604482015260640161056b565b600060646006548a6108729190611532565b61087c9190611551565b60408051336024820152604480820184905282518083039091018152606490910182526020810180516001600160e01b031663a9059cbb60e01b179052905191925060009182916001600160a01b038b16916108d891906114ca565b6000604051808303816000865af19150503d8060008114610915576040519150601f19603f3d011682016040523d82523d6000602084013e61091a565b606091505b509150915082975081801561094757508051158061094757508080602001905181019061094791906114ff565b6109935760405162461bcd60e51b815260206004820152601d60248201527f5455494e506f6f6c3a205452414e534645525f4f55545f4641494c4544000000604482015260640161056b565b505050505050935093915050565b60005461010090046001600160a01b031633146109bd57600080fd5b604080516001600160a01b038381166024830152604480830186905283518084039091018152606490920183526020820180516001600160e01b031663a9059cbb60e01b1790529151600092839290871691610a1991906114ca565b6000604051808303816000865af19150503d8060008114610a56576040519150601f19603f3d011682016040523d82523d6000602084013e610a5b565b606091505b5091509150818015610a85575080511580610a85575080806020019051810190610a8591906114ff565b610aa15760405162461bcd60e51b815260040161056b90611573565b5050505050565b6001600160a01b038216610af55760405162461bcd60e51b815260206004820152601460248201527311549493d48e881e5a595b19081b9bdd081cd95d60621b604482015260640161056b565b6000805460ff1615159003610b5e5760405162461bcd60e51b815260206004820152602960248201527f4552524f523a207374696c6c2067656e65726174696e67207969656c642c20636044820152686865636b206261636b60b81b606482015260840161056b565b600080846001600160a01b031663b17f971f60e01b84604051602401610b88911515815260200190565b60408051601f198184030181529181526020820180516001600160e01b03166001600160e01b0319909416939093179092529051610bc691906114ca565b6000604051808303816000865af19150503d8060008114610c03576040519150601f19603f3d011682016040523d82523d6000602084013e610c08565b606091505b509150915081610c485760405162461bcd60e51b815260206004820152600b60248201526a18d85b1b0819985a5b195960aa1b604482015260640161056b565b600081806020019051810190610c5e91906114e6565b905060008160055489610c719190611532565b610c7b9190611551565b6040805133602482015230604482015260648082018c905282518083039091018152608490910182526020810180516001600160e01b03166323b872dd60e01b179052905191925060009182916001600160a01b038b1691610cdd91906114ca565b6000604051808303816000865af19150503d8060008114610d1a576040519150601f19603f3d011682016040523d82523d6000602084013e610d1f565b606091505b5091509150818015610d49575080511580610d49575080806020019051810190610d4991906114ff565b610da35760405162461bcd60e51b815260206004820152602560248201527f5455494e506f6f6c3a205452414e5346455246524f4d5f494e5f4641494c4544604482015264103b3b3b3b60d91b606482015260840161056b565b604051306024820152604481018b9052871515606482015260009081906001600160a01b038c169060840160408051601f198184030181529181526020820180516001600160e01b03166376fd4fdf60e01b17905251610e0391906114ca565b6000604051808303816000865af19150503d8060008114610e40576040519150601f19603f3d011682016040523d82523d6000602084013e610e45565b606091505b5091509150818015610e6f575080511580610e6f575080806020019051810190610e6f91906114ff565b610e8b5760405162461bcd60e51b815260040161056b90611573565b60408051336024820152604480820188905282518083039091018152606490910182526020810180516001600160e01b031663a9059cbb60e01b179052905160009182916001600160a01b038e1691610ee3916114ca565b6000604051808303816000865af19150503d8060008114610f20576040519150601f19603f3d011682016040523d82523d6000602084013e610f25565b606091505b5091509150818015610f4f575080511580610f4f575080806020019051810190610f4f91906114ff565b610f9b5760405162461bcd60e51b815260206004820152601d60248201527f5455494e506f6f6c3a205452414e534645525f4f55545f4641494c4544000000604482015260640161056b565b5050505050505050505050505050565b60005461010090046001600160a01b03163314610fc757600080fd5b60408051336024820152306044820152606480820184905282518083039091018152608490910182526020810180516001600160e01b03166323b872dd60e01b179052905160009182916001600160a01b03861691611025916114ca565b6000604051808303816000865af19150503d8060008114611062576040519150601f19603f3d011682016040523d82523d6000602084013e611067565b606091505b509150915081801561109157508051158061109157508080602001905181019061109191906114ff565b6110ad5760405162461bcd60e51b815260040161056b90611573565b82600560008282546110bf91906115a8565b909155505050505050565b600780546110d7906115c0565b80601f0160208091040260200160405190810160405280929190818152602001828054611103906115c0565b80156111505780601f1061112557610100808354040283529160200191611150565b820191906000526020600020905b81548152906001019060200180831161113357829003601f168201915b505050505081565b6000805461010090046001600160a01b0316331461117557600080fd5b60648211156111c65760405162461bcd60e51b815260206004820152601f60248201527f65786368616e67652072617465206f7574206f6620626f756e64617269657300604482015260640161056b565b6111d18260646115a8565b6006555060015b919050565b60005461010090046001600160a01b031633146111f957600080fd5b6000805460ff1916911515919091179055565b60005461010090046001600160a01b0316331461122857600080fd5b60076112348282611649565b5050565b80356001600160a01b03811681146111d857600080fd5b60006020828403121561126157600080fd5b61126a82611238565b9392505050565b60008060006060848603121561128657600080fd5b8335925061129660208501611238565b91506112a460408501611238565b90509250925092565b6000806000606084860312156112c257600080fd5b6112cb84611238565b9250602084013591506112a460408501611238565b80151581146112ee57600080fd5b50565b6000806000806080858703121561130757600080fd5b8435935061131760208601611238565b925061132560408601611238565b91506060850135611335816112e0565b939692955090935050565b6000806040838503121561135357600080fd5b61135c83611238565b946020939093013593505050565b60005b8381101561138557818101518382015260200161136d565b83811115611394576000848401525b50505050565b60208152600082518060208401526113b981604085016020870161136a565b601f01601f19169190910160400192915050565b6000602082840312156113df57600080fd5b5035919050565b6000602082840312156113f857600080fd5b813561126a816112e0565b634e487b7160e01b600052604160045260246000fd5b60006020828403121561142b57600080fd5b813567ffffffffffffffff8082111561144357600080fd5b818401915084601f83011261145757600080fd5b81358181111561146957611469611403565b604051601f8201601f19908116603f0116810190838211818310171561149157611491611403565b816040528281528760208487010111156114aa57600080fd5b826020860160208301376000928101602001929092525095945050505050565b600082516114dc81846020870161136a565b9190910192915050565b6000602082840312156114f857600080fd5b5051919050565b60006020828403121561151157600080fd5b815161126a816112e0565b634e487b7160e01b600052601160045260246000fd5b600081600019048311821515161561154c5761154c61151c565b500290565b60008261156e57634e487b7160e01b600052601260045260246000fd5b500490565b6020808252818101527f5455494e506f6f6c3a205452414e5346455246524f4d5f494e5f4641494c4544604082015260600190565b600082198211156115bb576115bb61151c565b500190565b600181811c908216806115d457607f821691505b6020821081036115f457634e487b7160e01b600052602260045260246000fd5b50919050565b601f82111561164457600081815260208120601f850160051c810160208610156116215750805b601f850160051c820191505b818110156116405782815560010161162d565b5050505b505050565b815167ffffffffffffffff81111561166357611663611403565b6116778161167184546115c0565b846115fa565b602080601f8311600181146116ac57600084156116945750858301515b600019600386901b1c1916600185901b178555611640565b600085815260208120601f198616915b828110156116db578886015182559484019460019091019084016116bc565b50858210156116f95787850151600019600388901b60f8161c191681555b5050505050600190811b0190555056fea2646970667358221220a965e1a384b3e49a8c96ce8c4e7b4502d0950b15e7e5854597369ad4758f66da64736f6c634300080f0033",
    "linkReferences": {}
  },
  "methodIdentifiers": {
    "acceptedToken1()": "bf7788a7",
    "acceptedToken2()": "e28f765c",
    "acceptedToken3()": "234471d2",
    "approveYield(bool)": "ee72aef3",
    "deploymentChainId()": "cd0d0096",
    "depositYield(address,uint256)": "d6996185",
    "exchangeRate()": "3ba0b9a9",
    "isApproved()": "28f371aa",
    "owner()": "8da5cb5b",
    "redeem(uint256,address,address,bool)": "be4a0a14",
    "redeemableDate()": "d9b01824",
    "setAcceptedToken1(address)": "6ca5a9bb",
    "setAcceptedToken2(address)": "4619a066",
    "setAcceptedToken3(address)": "16119bba",
    "setExchangeRate(uint256)": "db068e0e",
    "setOwner(address)": "13af4035",
    "setRedeemableDate(string)": "f293b2ac",
    "setYieldAddress(address)": "1323b5a4",
    "swapIn(uint256,address,address)": "76b12882",
    "totalYieldDerived()": "1af25abd",
    "tuinHeld(address)": "708fd65b",
    "withdrawTksSent(address,uint256,address)": "8407666b",
    "yieldAddress()": "affc492e"
  },
  "id": 27
}