{
  "abi": [
    {
      "inputs": [
        {
          "internalType": "address",
          "name": "_poolContract",
          "type": "address"
        },
        {
          "internalType": "bool",
          "name": "isEth",
          "type": "bool"
        }
      ],
      "stateMutability": "nonpayable",
      "type": "constructor"
    },
    {
      "anonymous": false,
      "inputs": [
        {
          "indexed": true,
          "internalType": "address",
          "name": "owner",
          "type": "address"
        },
        {
          "indexed": true,
          "internalType": "address",
          "name": "spender",
          "type": "address"
        },
        {
          "indexed": false,
          "internalType": "uint256",
          "name": "value",
          "type": "uint256"
        }
      ],
      "name": "Approval",
      "type": "event"
    },
    {
      "anonymous": false,
      "inputs": [
        {
          "indexed": true,
          "internalType": "address",
          "name": "from",
          "type": "address"
        },
        {
          "indexed": true,
          "internalType": "address",
          "name": "to",
          "type": "address"
        },
        {
          "indexed": false,
          "internalType": "uint256",
          "name": "value",
          "type": "uint256"
        }
      ],
      "name": "Transfer",
      "type": "event"
    },
    {
      "inputs": [
        {
          "internalType": "address",
          "name": "_owner",
          "type": "address"
        },
        {
          "internalType": "address",
          "name": "_spender",
          "type": "address"
        }
      ],
      "name": "allowance",
      "outputs": [
        {
          "internalType": "uint256",
          "name": "",
          "type": "uint256"
        }
      ],
      "stateMutability": "view",
      "type": "function"
    },
    {
      "inputs": [
        {
          "internalType": "address",
          "name": "_spender",
          "type": "address"
        },
        {
          "internalType": "uint256",
          "name": "_value",
          "type": "uint256"
        }
      ],
      "name": "approve",
      "outputs": [
        {
          "internalType": "bool",
          "name": "",
          "type": "bool"
        }
      ],
      "stateMutability": "nonpayable",
      "type": "function"
    },
    {
      "inputs": [
        {
          "internalType": "address",
          "name": "_owner",
          "type": "address"
        }
      ],
      "name": "balanceOf",
      "outputs": [
        {
          "internalType": "uint256",
          "name": "balance",
          "type": "uint256"
        }
      ],
      "stateMutability": "view",
      "type": "function"
    },
    {
      "inputs": [
        {
          "internalType": "address",
          "name": "account",
          "type": "address"
        },
        {
          "internalType": "uint256",
          "name": "amount",
          "type": "uint256"
        },
        {
          "internalType": "bool",
          "name": "isEth",
          "type": "bool"
        }
      ],
      "name": "burn",
      "outputs": [
        {
          "internalType": "bool",
          "name": "",
          "type": "bool"
        }
      ],
      "stateMutability": "nonpayable",
      "type": "function"
    },
    {
      "inputs": [
        {
          "internalType": "address",
          "name": "_from",
          "type": "address"
        },
        {
          "internalType": "uint256",
          "name": "_amount",
          "type": "uint256"
        },
        {
          "internalType": "bool",
          "name": "isEth",
          "type": "bool"
        }
      ],
      "name": "burnFrom",
      "outputs": [
        {
          "internalType": "bool",
          "name": "",
          "type": "bool"
        }
      ],
      "stateMutability": "nonpayable",
      "type": "function"
    },
    {
      "inputs": [
        {
          "internalType": "uint256",
          "name": "_new_maxsupply_on_bsc",
          "type": "uint256"
        }
      ],
      "name": "changeSupplyOnBsc",
      "outputs": [],
      "stateMutability": "nonpayable",
      "type": "function"
    },
    {
      "inputs": [
        {
          "internalType": "uint256",
          "name": "_new_maxsupply_on_eth",
          "type": "uint256"
        }
      ],
      "name": "changeSupplyOnEth",
      "outputs": [],
      "stateMutability": "nonpayable",
      "type": "function"
    },
    {
      "inputs": [],
      "name": "decimals",
      "outputs": [
        {
          "internalType": "uint8",
          "name": "",
          "type": "uint8"
        }
      ],
      "stateMutability": "view",
      "type": "function"
    },
    {
      "inputs": [
        {
          "internalType": "address",
          "name": "_spender",
          "type": "address"
        },
        {
          "internalType": "uint256",
          "name": "_subtractedValue",
          "type": "uint256"
        }
      ],
      "name": "decreaseApproval",
      "outputs": [
        {
          "internalType": "bool",
          "name": "",
          "type": "bool"
        }
      ],
      "stateMutability": "nonpayable",
      "type": "function"
    },
    {
      "inputs": [],
      "name": "deploymentChainId",
      "outputs": [
        {
          "internalType": "uint256",
          "name": "",
          "type": "uint256"
        }
      ],
      "stateMutability": "view",
      "type": "function"
    },
    {
      "inputs": [
        {
          "internalType": "bool",
          "name": "isEth",
          "type": "bool"
        }
      ],
      "name": "getChainTotalSupply",
      "outputs": [
        {
          "internalType": "uint256",
          "name": "",
          "type": "uint256"
        }
      ],
      "stateMutability": "view",
      "type": "function"
    },
    {
      "inputs": [
        {
          "internalType": "address",
          "name": "_spender",
          "type": "address"
        },
        {
          "internalType": "uint256",
          "name": "_addedValue",
          "type": "uint256"
        }
      ],
      "name": "increaseApproval",
      "outputs": [
        {
          "internalType": "bool",
          "name": "",
          "type": "bool"
        }
      ],
      "stateMutability": "nonpayable",
      "type": "function"
    },
    {
      "inputs": [],
      "name": "init_maxsupply_on_bsc",
      "outputs": [
        {
          "internalType": "uint256",
          "name": "",
          "type": "uint256"
        }
      ],
      "stateMutability": "view",
      "type": "function"
    },
    {
      "inputs": [],
      "name": "init_maxsupply_on_eth",
      "outputs": [
        {
          "internalType": "uint256",
          "name": "",
          "type": "uint256"
        }
      ],
      "stateMutability": "view",
      "type": "function"
    },
    {
      "inputs": [],
      "name": "maxSupply",
      "outputs": [
        {
          "internalType": "uint256",
          "name": "",
          "type": "uint256"
        }
      ],
      "stateMutability": "view",
      "type": "function"
    },
    {
      "inputs": [],
      "name": "maxsupply_on_bsc",
      "outputs": [
        {
          "internalType": "uint256",
          "name": "",
          "type": "uint256"
        }
      ],
      "stateMutability": "view",
      "type": "function"
    },
    {
      "inputs": [],
      "name": "maxsupply_on_eth",
      "outputs": [
        {
          "internalType": "uint256",
          "name": "",
          "type": "uint256"
        }
      ],
      "stateMutability": "view",
      "type": "function"
    },
    {
      "inputs": [
        {
          "internalType": "address",
          "name": "account",
          "type": "address"
        },
        {
          "internalType": "uint256",
          "name": "amount",
          "type": "uint256"
        },
        {
          "internalType": "bool",
          "name": "isEth",
          "type": "bool"
        }
      ],
      "name": "mint",
      "outputs": [
        {
          "internalType": "bool",
          "name": "",
          "type": "bool"
        }
      ],
      "stateMutability": "nonpayable",
      "type": "function"
    },
    {
      "inputs": [],
      "name": "name",
      "outputs": [
        {
          "internalType": "string",
          "name": "",
          "type": "string"
        }
      ],
      "stateMutability": "view",
      "type": "function"
    },
    {
      "inputs": [],
      "name": "owner",
      "outputs": [
        {
          "internalType": "address",
          "name": "",
          "type": "address"
        }
      ],
      "stateMutability": "view",
      "type": "function"
    },
    {
      "inputs": [],
      "name": "pool",
      "outputs": [
        {
          "internalType": "address",
          "name": "",
          "type": "address"
        }
      ],
      "stateMutability": "view",
      "type": "function"
    },
    {
      "inputs": [
        {
          "internalType": "address",
          "name": "_surryWallet",
          "type": "address"
        }
      ],
      "name": "setOwner",
      "outputs": [],
      "stateMutability": "nonpayable",
      "type": "function"
    },
    {
      "inputs": [],
      "name": "symbol",
      "outputs": [
        {
          "internalType": "string",
          "name": "",
          "type": "string"
        }
      ],
      "stateMutability": "view",
      "type": "function"
    },
    {
      "inputs": [],
      "name": "totalSupply",
      "outputs": [
        {
          "internalType": "uint256",
          "name": "",
          "type": "uint256"
        }
      ],
      "stateMutability": "view",
      "type": "function"
    },
    {
      "inputs": [
        {
          "internalType": "address",
          "name": "_to",
          "type": "address"
        },
        {
          "internalType": "uint256",
          "name": "_value",
          "type": "uint256"
        }
      ],
      "name": "transfer",
      "outputs": [
        {
          "internalType": "bool",
          "name": "",
          "type": "bool"
        }
      ],
      "stateMutability": "nonpayable",
      "type": "function"
    },
    {
      "inputs": [
        {
          "internalType": "address",
          "name": "_from",
          "type": "address"
        },
        {
          "internalType": "address",
          "name": "_to",
          "type": "address"
        },
        {
          "internalType": "uint256",
          "name": "_value",
          "type": "uint256"
        }
      ],
      "name": "transferFrom",
      "outputs": [
        {
          "internalType": "bool",
          "name": "",
          "type": "bool"
        }
      ],
      "stateMutability": "nonpayable",
      "type": "function"
    }
  ],
  "bytecode": {
    "object": "0x60c06040526b1027e72f1f128130880000006002556b06765c793fa10079d000000060035534801561003057600080fd5b506040516113db3803806113db83398101604081905261004f916100de565b4660a0819052600080546001600160a01b031916331790556001600160a01b03831660805281156100aa576b1027e72f1f1281308800000060018190556001600160a01b0384166000908152600460205260409020556100d6565b6b06765c793fa10079d000000060018190556001600160a01b0384166000908152600460205260409020555b505050610129565b600080604083850312156100f157600080fd5b82516001600160a01b038116811461010857600080fd5b6020840151909250801515811461011e57600080fd5b809150509250929050565b60805160a05161128661015560003960006103a401526000818161023a0152610a6e01526112866000f3fe608060405234801561001057600080fd5b506004361061018d5760003560e01c806370a08231116100de578063a9059cbb11610097578063d1a1beb411610071578063d1a1beb4146103c6578063d5abeb01146103d9578063d73dd623146103e1578063dd62ed3e146103f457600080fd5b8063a9059cbb14610379578063b17f971f1461038c578063cd0d00961461039f57600080fd5b806370a08231146102e357806376fd4fdf1461030c5780638b56a5161461031f5780638da5cb5b14610332578063959566ce1461034557806395d89b411461035857600080fd5b806316f0115b1161014b57806323b872dd1161012557806323b872dd14610290578063313ce567146102a3578063404d6111146102bd57806366188463146102d057600080fd5b806316f0115b1461023557806318160ddd146102745780631ee1a56b1461027d57600080fd5b8062035ed4146101925780630418d7cb146101a757806306fdde03146101c3578063095ea7b3146101f657806313af40351461021957806315a40c051461022c575b600080fd5b6101a56101a0366004610fb7565b61042d565b005b6101b060035481565b6040519081526020015b60405180910390f35b6101e9604051806040016040528060078152602001665475696e20763160c81b81525081565b6040516101ba9190610fd0565b610209610204366004611041565b610473565b60405190151581526020016101ba565b6101a561022736600461106b565b6104df565b6101b060025481565b61025c7f000000000000000000000000000000000000000000000000000000000000000081565b6040516001600160a01b0390911681526020016101ba565b6101b060015481565b6101a561028b366004610fb7565b610518565b61020961029e36600461108d565b610555565b6102ab601281565b60405160ff90911681526020016101ba565b6102096102cb3660046110d9565b610796565b6102096102de366004611041565b610979565b6101b06102f136600461106b565b6001600160a01b031660009081526004602052604090205490565b61020961031a3660046110d9565b610a61565b6101b06b06765c793fa10079d000000081565b60005461025c906001600160a01b031681565b6101b06b1027e72f1f1281308800000081565b6101e960405180604001604052806002815260200161151560f21b81525081565b610209610387366004611041565b610bbf565b6101b061039a366004611115565b610cc2565b6101b07f000000000000000000000000000000000000000000000000000000000000000081565b6102096103d43660046110d9565b610cda565b6101b0610e26565b6102096103ef366004611041565b610e3d565b6101b0610402366004611130565b6001600160a01b03918216600090815260056020908152604080832093909416825291909152205490565b6000546001600160a01b0316331461044457600080fd5b806001541061046e5760405162461bcd60e51b815260040161046590611163565b60405180910390fd5b600255565b3360008181526005602090815260408083206001600160a01b038716808552925280832085905551919290917f8c5be1e5ebec7d5bd14f71427d1e84f3dd0314c0f7b2291e5b200ac8c7c3b925906104ce9086815260200190565b60405180910390a350600192915050565b6000546001600160a01b031633146104f657600080fd5b600080546001600160a01b0319166001600160a01b0392909216919091179055565b6000546001600160a01b0316331461052f57600080fd5b80600154106105505760405162461bcd60e51b815260040161046590611163565b600355565b60006001600160a01b0384166105ad5760405162461bcd60e51b815260206004820181905260248201527f45524332303a2066726f6d2061646472657373206973206e6f742076616c69646044820152606401610465565b6001600160a01b0383166106035760405162461bcd60e51b815260206004820152601e60248201527f45524332303a20746f2061646472657373206973206e6f742076616c696400006044820152606401610465565b6001600160a01b03841660009081526004602052604090205482111561063b5760405162461bcd60e51b8152600401610465906111b4565b6001600160a01b03841660009081526005602090815260408083203384529091529020548211156106bd5760405162461bcd60e51b815260206004820152602660248201527f45524332303a207472616e736665722066726f6d2076616c7565206e6f7420616044820152651b1b1bddd95960d21b6064820152608401610465565b6001600160a01b0384166000908152600560209081526040808320338452909152812080548492906106f0908490611201565b90915550506001600160a01b0384166000908152600460205260408120805484929061071d908490611201565b90915550506001600160a01b0383166000908152600460205260408120805484929061074a908490611218565b92505081905550826001600160a01b0316846001600160a01b03166000805160206112318339815191528460405161078491815260200190565b60405180910390a35060019392505050565b60006001600160a01b0384166107ee5760405162461bcd60e51b815260206004820181905260248201527f45524332303a2066726f6d2061646472657373206973206e6f742076616c69646044820152606401610465565b6001600160a01b0384166000908152600460205260409020548311156108265760405162461bcd60e51b8152600401610465906111b4565b6001600160a01b03841660009081526005602090815260408083203384529091529020548311156108a45760405162461bcd60e51b815260206004820152602260248201527f45524332303a206275726e2066726f6d2076616c7565206e6f7420616c6c6f77604482015261195960f21b6064820152608401610465565b8180156108b5575060025460015411155b156108c9576108c48484610ece565b61094d565b811580156108db575060035460015411155b156108ea576108c48484610ece565b60405162461bcd60e51b815260206004820152603260248201527f4552524f523a206e6f7420726967687420636861696e206f72206578636565646044820152717320636861696e206d617820737570706c7960701b6064820152608401610465565b6040518381526000906001600160a01b0386169060008051602061123183398151915290602001610784565b3360009081526005602090815260408083206001600160a01b0386168452909152812054808311156109ce573360009081526005602090815260408083206001600160a01b03881684529091528120556109fd565b6109d88382611201565b3360009081526005602090815260408083206001600160a01b03891684529091529020555b3360008181526005602090815260408083206001600160a01b038916808552908352928190205490519081529192917f8c5be1e5ebec7d5bd14f71427d1e84f3dd0314c0f7b2291e5b200ac8c7c3b925910160405180910390a35060019392505050565b6000336001600160a01b037f00000000000000000000000000000000000000000000000000000000000000001614610a9857600080fd5b6001600160a01b038416610aee5760405162461bcd60e51b815260206004820181905260248201527f5455494e2045524332303a206d696e7420746f207a65726f20616464726573736044820152606401610465565b6001600160a01b038416600090815260046020526040902054831115610b565760405162461bcd60e51b815260206004820152601b60248201527f6275726e20616d6f756e7420657863656564732062616c616e636500000000006044820152606401610465565b818015610b67575060025460015411155b15610b7b57610b768484610f50565b610b9c565b81158015610b8d575060035460015411155b156108ea57610b768484610f50565b604051838152600090339060008051602061123183398151915290602001610784565b60006001600160a01b038316610c175760405162461bcd60e51b815260206004820152601e60248201527f45524332303a20746f2061646472657373206973206e6f742076616c696400006044820152606401610465565b33600090815260046020526040902054821115610c465760405162461bcd60e51b8152600401610465906111b4565b3360009081526004602052604081208054849290610c65908490611201565b90915550506001600160a01b03831660009081526004602052604081208054849290610c92908490611218565b90915550506040518281526001600160a01b038416903390600080516020611231833981519152906020016104ce565b60008115610cd257505060025490565b505060035490565b600080546001600160a01b03163314610cf257600080fd5b6001600160a01b038416610d485760405162461bcd60e51b815260206004820181905260248201527f5455494e2045524332303a206d696e7420746f207a65726f20616464726573736044820152606401610465565b818015610d585750600254600154105b15610d6c57610d678484610f78565b610dfa565b81158015610d7d5750600354600154105b15610d8c57610d678484610f78565b60405162461bcd60e51b815260206004820152603c60248201527f4552524f523a206e6f7420726967687420636861696e206f7220617474656d7060448201527f74206d6f7265207468616e20636861696e206d617820737570706c79000000006064820152608401610465565b6040518381526001600160a01b0385169060009060008051602061123183398151915290602001610784565b6000600354600254610e389190611218565b905090565b3360009081526005602090815260408083206001600160a01b0386168452909152812080548391908390610e72908490611218565b90915550503360008181526005602090815260408083206001600160a01b038816808552908352928190205490519081529192917f8c5be1e5ebec7d5bd14f71427d1e84f3dd0314c0f7b2291e5b200ac8c7c3b92591016104ce565b6001600160a01b038216600090815260056020908152604080832033845290915281208054839290610f01908490611201565b90915550506001600160a01b03821660009081526004602052604081208054839290610f2e908490611201565b925050819055508060016000828254610f479190611201565b90915550505050565b6001600160a01b03821660009081526004602052604081208054839290610f2e908490611201565b8060016000828254610f8a9190611218565b90915550506001600160a01b03821660009081526004602052604081208054839290610f47908490611218565b600060208284031215610fc957600080fd5b5035919050565b600060208083528351808285015260005b81811015610ffd57858101830151858201604001528201610fe1565b8181111561100f576000604083870101525b50601f01601f1916929092016040019392505050565b80356001600160a01b038116811461103c57600080fd5b919050565b6000806040838503121561105457600080fd5b61105d83611025565b946020939093013593505050565b60006020828403121561107d57600080fd5b61108682611025565b9392505050565b6000806000606084860312156110a257600080fd5b6110ab84611025565b92506110b960208501611025565b9150604084013590509250925092565b8035801515811461103c57600080fd5b6000806000606084860312156110ee57600080fd5b6110f784611025565b92506020840135915061110c604085016110c9565b90509250925092565b60006020828403121561112757600080fd5b611086826110c9565b6000806040838503121561114357600080fd5b61114c83611025565b915061115a60208401611025565b90509250929050565b60208082526031908201527f4552524f523a2076616c7565206c6573736572207468616e206f7220657175616040820152706c20746f20746f74616c20737570706c7960781b606082015260800190565b6020808252601b908201527f45524332303a20696e73756666696369656e742062616c616e63650000000000604082015260600190565b634e487b7160e01b600052601160045260246000fd5b600082821015611213576112136111eb565b500390565b6000821982111561122b5761122b6111eb565b50019056feddf252ad1be2c89b69c2b068fc378daa952ba7f163c4a11628f55a4df523b3efa26469706673582212201fd8272ed1fd519f1f0a64d9a77372e94a9b7aa7837adff2d3aaac76cc61b0e664736f6c634300080f0033",
    "linkReferences": {}
  },
  "methodIdentifiers": {
    "allowance(address,address)": "dd62ed3e",
    "approve(address,uint256)": "095ea7b3",
    "balanceOf(address)": "70a08231",
    "burn(address,uint256,bool)": "76fd4fdf",
    "burnFrom(address,uint256,bool)": "404d6111",
    "changeSupplyOnBsc(uint256)": "1ee1a56b",
    "changeSupplyOnEth(uint256)": "00035ed4",
    "decimals()": "313ce567",
    "decreaseApproval(address,uint256)": "66188463",
    "deploymentChainId()": "cd0d0096",
    "getChainTotalSupply(bool)": "b17f971f",
    "increaseApproval(address,uint256)": "d73dd623",
    "init_maxsupply_on_bsc()": "8b56a516",
    "init_maxsupply_on_eth()": "959566ce",
    "maxSupply()": "d5abeb01",
    "maxsupply_on_bsc()": "0418d7cb",
    "maxsupply_on_eth()": "15a40c05",
    "mint(address,uint256,bool)": "d1a1beb4",
    "name()": "06fdde03",
    "owner()": "8da5cb5b",
    "pool()": "16f0115b",
    "setOwner(address)": "13af4035",
    "symbol()": "95d89b41",
    "totalSupply()": "18160ddd",
    "transfer(address,uint256)": "a9059cbb",
    "transferFrom(address,address,uint256)": "23b872dd"
  },
  "id": 26
}