{
  "abi": [
    {
      "inputs": [
        {
          "internalType": "address",
          "name": "_poolContract",
          "type": "address"
        }
      ],
      "stateMutability": "nonpayable",
      "type": "constructor"
    },
    {
      "anonymous": false,
      "inputs": [
        {
          "indexed": true,
          "internalType": "address",
          "name": "owner",
          "type": "address"
        },
        {
          "indexed": true,
          "internalType": "address",
          "name": "spender",
          "type": "address"
        },
        {
          "indexed": false,
          "internalType": "uint256",
          "name": "value",
          "type": "uint256"
        }
      ],
      "name": "Approval",
      "type": "event"
    },
    {
      "anonymous": false,
      "inputs": [
        {
          "indexed": true,
          "internalType": "bool",
          "name": "success",
          "type": "bool"
        },
        {
          "indexed": true,
          "internalType": "address",
          "name": "newOwner",
          "type": "address"
        }
      ],
      "name": "OwnerSet",
      "type": "event"
    },
    {
      "anonymous": false,
      "inputs": [
        {
          "indexed": true,
          "internalType": "bool",
          "name": "success",
          "type": "bool"
        },
        {
          "indexed": true,
          "internalType": "address",
          "name": "newPool",
          "type": "address"
        }
      ],
      "name": "PoolSet",
      "type": "event"
    },
    {
      "anonymous": false,
      "inputs": [
        {
          "indexed": true,
          "internalType": "address",
          "name": "from",
          "type": "address"
        },
        {
          "indexed": true,
          "internalType": "address",
          "name": "to",
          "type": "address"
        },
        {
          "indexed": false,
          "internalType": "uint256",
          "name": "value",
          "type": "uint256"
        }
      ],
      "name": "Transfer",
      "type": "event"
    },
    {
      "inputs": [
        {
          "internalType": "address",
          "name": "_owner",
          "type": "address"
        },
        {
          "internalType": "address",
          "name": "_spender",
          "type": "address"
        }
      ],
      "name": "allowance",
      "outputs": [
        {
          "internalType": "uint256",
          "name": "",
          "type": "uint256"
        }
      ],
      "stateMutability": "view",
      "type": "function"
    },
    {
      "inputs": [
        {
          "internalType": "address",
          "name": "_spender",
          "type": "address"
        },
        {
          "internalType": "uint256",
          "name": "_value",
          "type": "uint256"
        }
      ],
      "name": "approve",
      "outputs": [
        {
          "internalType": "bool",
          "name": "",
          "type": "bool"
        }
      ],
      "stateMutability": "nonpayable",
      "type": "function"
    },
    {
      "inputs": [
        {
          "internalType": "address",
          "name": "_owner",
          "type": "address"
        }
      ],
      "name": "balanceOf",
      "outputs": [
        {
          "internalType": "uint256",
          "name": "balance",
          "type": "uint256"
        }
      ],
      "stateMutability": "view",
      "type": "function"
    },
    {
      "inputs": [
        {
          "internalType": "address",
          "name": "account",
          "type": "address"
        },
        {
          "internalType": "uint256",
          "name": "amount",
          "type": "uint256"
        }
      ],
      "name": "burn",
      "outputs": [
        {
          "internalType": "bool",
          "name": "",
          "type": "bool"
        }
      ],
      "stateMutability": "nonpayable",
      "type": "function"
    },
    {
      "inputs": [
        {
          "internalType": "address",
          "name": "_from",
          "type": "address"
        },
        {
          "internalType": "uint256",
          "name": "_amount",
          "type": "uint256"
        }
      ],
      "name": "burnFrom",
      "outputs": [
        {
          "internalType": "bool",
          "name": "",
          "type": "bool"
        }
      ],
      "stateMutability": "nonpayable",
      "type": "function"
    },
    {
      "inputs": [
        {
          "internalType": "uint256",
          "name": "_new_maxsupply_on_bsc",
          "type": "uint256"
        }
      ],
      "name": "changeSupplyOnBsc",
      "outputs": [
        {
          "internalType": "bool",
          "name": "",
          "type": "bool"
        }
      ],
      "stateMutability": "nonpayable",
      "type": "function"
    },
    {
      "inputs": [
        {
          "internalType": "uint256",
          "name": "_new_maxsupply_on_eth",
          "type": "uint256"
        }
      ],
      "name": "changeSupplyOnEth",
      "outputs": [
        {
          "internalType": "bool",
          "name": "",
          "type": "bool"
        }
      ],
      "stateMutability": "nonpayable",
      "type": "function"
    },
    {
      "inputs": [],
      "name": "decimals",
      "outputs": [
        {
          "internalType": "uint8",
          "name": "",
          "type": "uint8"
        }
      ],
      "stateMutability": "view",
      "type": "function"
    },
    {
      "inputs": [
        {
          "internalType": "address",
          "name": "_spender",
          "type": "address"
        },
        {
          "internalType": "uint256",
          "name": "_subtractedValue",
          "type": "uint256"
        }
      ],
      "name": "decreaseApproval",
      "outputs": [
        {
          "internalType": "bool",
          "name": "",
          "type": "bool"
        }
      ],
      "stateMutability": "nonpayable",
      "type": "function"
    },
    {
      "inputs": [],
      "name": "deploymentChainId",
      "outputs": [
        {
          "internalType": "uint256",
          "name": "",
          "type": "uint256"
        }
      ],
      "stateMutability": "view",
      "type": "function"
    },
    {
      "inputs": [],
      "name": "getChainMaxSupply",
      "outputs": [
        {
          "internalType": "uint256",
          "name": "",
          "type": "uint256"
        }
      ],
      "stateMutability": "view",
      "type": "function"
    },
    {
      "inputs": [
        {
          "internalType": "address",
          "name": "_spender",
          "type": "address"
        },
        {
          "internalType": "uint256",
          "name": "_addedValue",
          "type": "uint256"
        }
      ],
      "name": "increaseApproval",
      "outputs": [
        {
          "internalType": "bool",
          "name": "",
          "type": "bool"
        }
      ],
      "stateMutability": "nonpayable",
      "type": "function"
    },
    {
      "inputs": [],
      "name": "init_maxsupply_on_bsc",
      "outputs": [
        {
          "internalType": "uint256",
          "name": "",
          "type": "uint256"
        }
      ],
      "stateMutability": "view",
      "type": "function"
    },
    {
      "inputs": [],
      "name": "init_maxsupply_on_eth",
      "outputs": [
        {
          "internalType": "uint256",
          "name": "",
          "type": "uint256"
        }
      ],
      "stateMutability": "view",
      "type": "function"
    },
    {
      "inputs": [],
      "name": "maxSupply",
      "outputs": [
        {
          "internalType": "uint256",
          "name": "",
          "type": "uint256"
        }
      ],
      "stateMutability": "view",
      "type": "function"
    },
    {
      "inputs": [],
      "name": "maxsupply_on_bsc",
      "outputs": [
        {
          "internalType": "uint256",
          "name": "",
          "type": "uint256"
        }
      ],
      "stateMutability": "view",
      "type": "function"
    },
    {
      "inputs": [],
      "name": "maxsupply_on_eth",
      "outputs": [
        {
          "internalType": "uint256",
          "name": "",
          "type": "uint256"
        }
      ],
      "stateMutability": "view",
      "type": "function"
    },
    {
      "inputs": [
        {
          "internalType": "address",
          "name": "account",
          "type": "address"
        },
        {
          "internalType": "uint256",
          "name": "amount",
          "type": "uint256"
        }
      ],
      "name": "mint",
      "outputs": [
        {
          "internalType": "bool",
          "name": "",
          "type": "bool"
        }
      ],
      "stateMutability": "nonpayable",
      "type": "function"
    },
    {
      "inputs": [],
      "name": "name",
      "outputs": [
        {
          "internalType": "string",
          "name": "",
          "type": "string"
        }
      ],
      "stateMutability": "view",
      "type": "function"
    },
    {
      "inputs": [],
      "name": "owner",
      "outputs": [
        {
          "internalType": "address",
          "name": "",
          "type": "address"
        }
      ],
      "stateMutability": "view",
      "type": "function"
    },
    {
      "inputs": [],
      "name": "pool",
      "outputs": [
        {
          "internalType": "address",
          "name": "",
          "type": "address"
        }
      ],
      "stateMutability": "view",
      "type": "function"
    },
    {
      "inputs": [
        {
          "internalType": "address",
          "name": "_newOwner",
          "type": "address"
        }
      ],
      "name": "setOwner",
      "outputs": [
        {
          "internalType": "bool",
          "name": "",
          "type": "bool"
        }
      ],
      "stateMutability": "nonpayable",
      "type": "function"
    },
    {
      "inputs": [
        {
          "internalType": "address",
          "name": "_newPool",
          "type": "address"
        }
      ],
      "name": "setPool",
      "outputs": [
        {
          "internalType": "bool",
          "name": "",
          "type": "bool"
        }
      ],
      "stateMutability": "nonpayable",
      "type": "function"
    },
    {
      "inputs": [],
      "name": "symbol",
      "outputs": [
        {
          "internalType": "string",
          "name": "",
          "type": "string"
        }
      ],
      "stateMutability": "view",
      "type": "function"
    },
    {
      "inputs": [],
      "name": "totalSupply",
      "outputs": [
        {
          "internalType": "uint256",
          "name": "",
          "type": "uint256"
        }
      ],
      "stateMutability": "view",
      "type": "function"
    },
    {
      "inputs": [
        {
          "internalType": "address",
          "name": "_to",
          "type": "address"
        },
        {
          "internalType": "uint256",
          "name": "_value",
          "type": "uint256"
        }
      ],
      "name": "transfer",
      "outputs": [
        {
          "internalType": "bool",
          "name": "",
          "type": "bool"
        }
      ],
      "stateMutability": "nonpayable",
      "type": "function"
    },
    {
      "inputs": [
        {
          "internalType": "address",
          "name": "_from",
          "type": "address"
        },
        {
          "internalType": "address",
          "name": "_to",
          "type": "address"
        },
        {
          "internalType": "uint256",
          "name": "_value",
          "type": "uint256"
        }
      ],
      "name": "transferFrom",
      "outputs": [
        {
          "internalType": "bool",
          "name": "",
          "type": "bool"
        }
      ],
      "stateMutability": "nonpayable",
      "type": "function"
    }
  ],
  "bytecode": {
    "object": "0x60a06040526b1027e72f1f128130880000006003556b06765c793fa10079d000000060045534801561003057600080fd5b506040516114f43803806114f483398101604081905261004f916100e1565b46608081905260018054336001600160a01b0319918216178255600280549091166001600160a01b0385161790558190036100b1576b1027e72f1f1281308800000060008181556001600160a01b0384168152600560205260409020556100da565b6b06765c793fa10079d000000060008181556001600160a01b0384168152600560205260409020555b5050610111565b6000602082840312156100f357600080fd5b81516001600160a01b038116811461010a57600080fd5b9392505050565b6080516113ac610148600039600081816103c4015281816108a901528181610b1a01528181610c620152610e3301526113ac6000f3fe608060405234801561001057600080fd5b50600436106101a85760003560e01c806366188463116100f957806395d89b4111610097578063cd0d009611610071578063cd0d0096146103bf578063d5abeb01146103e6578063d73dd623146103ee578063dd62ed3e1461040157600080fd5b806395d89b41146103785780639dc29fac14610399578063a9059cbb146103ac57600080fd5b806379cc6790116100d357806379cc67901461032c5780638b56a5161461033f5780638da5cb5b14610352578063959566ce1461036557600080fd5b806366188463146102e857806370a08231146102fb578063791c25ce1461032457600080fd5b806316f0115b1161016657806323b872dd1161014057806323b872dd14610295578063313ce567146102a857806340c10f19146102c25780634437152a146102d557600080fd5b806316f0115b1461024e57806318160ddd146102795780631ee1a56b1461028257600080fd5b8062035ed4146101ad5780630418d7cb146101d557806306fdde03146101ec578063095ea7b31461021f57806313af40351461023257806315a40c0514610245575b600080fd5b6101c06101bb366004611149565b61043a565b60405190151581526020015b60405180910390f35b6101de60045481565b6040519081526020016101cc565b610212604051806040016040528060078152602001665475696e20763160c81b81525081565b6040516101cc9190611162565b6101c061022d3660046111ce565b61048c565b6101c06102403660046111f8565b6104f8565b6101de60035481565b600254610261906001600160a01b031681565b6040516001600160a01b0390911681526020016101cc565b6101de60005481565b6101c0610290366004611149565b6105ac565b6101c06102a336600461121a565b6105f0565b6102b0601281565b60405160ff90911681526020016101cc565b6101c06102d03660046111ce565b610831565b6101c06102e33660046111f8565b6109c2565b6101c06102f63660046111ce565b610a2e565b6101de6103093660046111f8565b6001600160a01b031660009081526005602052604090205490565b6101de610b16565b6101c061033a3660046111ce565b610b50565b6101de6b06765c793fa10079d000000081565b600154610261906001600160a01b031681565b6101de6b1027e72f1f1281308800000081565b61021260405180604001604052806002815260200161151560f21b81525081565b6101c06103a73660046111ce565b610d57565b6101c06103ba3660046111ce565b610ebc565b6101de7f000000000000000000000000000000000000000000000000000000000000000081565b6101de610fbf565b6101c06103fc3660046111ce565b610fd1565b6101de61040f366004611256565b6001600160a01b03918216600090815260066020908152604080832093909416825291909152205490565b6001546000906001600160a01b0316331461045457600080fd5b816000541061047e5760405162461bcd60e51b815260040161047590611289565b60405180910390fd5b50600381905560015b919050565b3360008181526006602090815260408083206001600160a01b038716808552925280832085905551919290917f8c5be1e5ebec7d5bd14f71427d1e84f3dd0314c0f7b2291e5b200ac8c7c3b925906104e79086815260200190565b60405180910390a350600192915050565b6001546000906001600160a01b0316331461051257600080fd5b6001600160a01b038216300361055b5760405162461bcd60e51b815260206004820152600e60248201526d31b0b713ba1037bbb71039b2b63360911b6044820152606401610475565b600180546001600160a01b0319166001600160a01b03841690811782556040519091907fd1353000156294098c609acb796b2f7bdf45b2b628e9e2cbe2fd41c68b48db7590600090a3506001919050565b6001546000906001600160a01b031633146105c657600080fd5b81600054106105e75760405162461bcd60e51b815260040161047590611289565b50600455600190565b60006001600160a01b0384166106485760405162461bcd60e51b815260206004820181905260248201527f45524332303a2066726f6d2061646472657373206973206e6f742076616c69646044820152606401610475565b6001600160a01b03831661069e5760405162461bcd60e51b815260206004820152601e60248201527f45524332303a20746f2061646472657373206973206e6f742076616c696400006044820152606401610475565b6001600160a01b0384166000908152600560205260409020548211156106d65760405162461bcd60e51b8152600401610475906112da565b6001600160a01b03841660009081526006602090815260408083203384529091529020548211156107585760405162461bcd60e51b815260206004820152602660248201527f45524332303a207472616e736665722066726f6d2076616c7565206e6f7420616044820152651b1b1bddd95960d21b6064820152608401610475565b6001600160a01b03841660009081526006602090815260408083203384529091528120805484929061078b908490611327565b90915550506001600160a01b038416600090815260056020526040812080548492906107b8908490611327565b90915550506001600160a01b038316600090815260056020526040812080548492906107e590849061133e565b92505081905550826001600160a01b0316846001600160a01b03166000805160206113578339815191528460405161081f91815260200190565b60405180910390a35060019392505050565b6001546000906001600160a01b0316331461084b57600080fd5b6001600160a01b0383166108a15760405162461bcd60e51b815260206004820181905260248201527f5455494e2045524332303a206d696e7420746f207a65726f20616464726573736044820152606401610475565b6000805460017f00000000000000000000000000000000000000000000000000000000000000001491906108d690859061133e565b90508180156108e757506003548111155b156108fb576108f68585611062565b610988565b8115801561090b57506004548111155b1561091a576108f68585611062565b60405162461bcd60e51b815260206004820152603c60248201527f4552524f523a206e6f7420726967687420636861696e206f7220617474656d7060448201527f74206d6f7265207468616e20636861696e206d617820737570706c79000000006064820152608401610475565b6040518481526001600160a01b038616906000906000805160206113578339815191529060200160405180910390a3506001949350505050565b6001546000906001600160a01b031633146109dc57600080fd5b600280546001600160a01b0319166001600160a01b0384169081179091556040516001907f2557062020594cc64747ac41896647476747b99b8c2d5d89e0c15fef0149ed4090600090a3506001919050565b3360009081526006602090815260408083206001600160a01b038616845290915281205480831115610a83573360009081526006602090815260408083206001600160a01b0388168452909152812055610ab2565b610a8d8382611327565b3360009081526006602090815260408083206001600160a01b03891684529091529020555b3360008181526006602090815260408083206001600160a01b038916808552908352928190205490519081529192917f8c5be1e5ebec7d5bd14f71427d1e84f3dd0314c0f7b2291e5b200ac8c7c3b925910160405180910390a35060019392505050565b60007f0000000000000000000000000000000000000000000000000000000000000000600114610b47575060045490565b6003545b905090565b60006001600160a01b038316610ba85760405162461bcd60e51b815260206004820181905260248201527f45524332303a2066726f6d2061646472657373206973206e6f742076616c69646044820152606401610475565b6001600160a01b038316600090815260056020526040902054821115610be05760405162461bcd60e51b8152600401610475906112da565b6001600160a01b0383166000908152600660209081526040808320338452909152902054821115610c5e5760405162461bcd60e51b815260206004820152602260248201527f45524332303a206275726e2066726f6d2076616c7565206e6f7420616c6c6f77604482015261195960f21b6064820152608401610475565b60017f000000000000000000000000000000000000000000000000000000000000000014808015610c93575060035460005411155b15610ca757610ca284846110a9565b610d2b565b80158015610cb9575060045460005411155b15610cc857610ca284846110a9565b60405162461bcd60e51b815260206004820152603260248201527f4552524f523a206e6f7420726967687420636861696e206f72206578636565646044820152717320636861696e206d617820737570706c7960701b6064820152608401610475565b6040518381526000906001600160a01b038616906000805160206113578339815191529060200161081f565b6002546000906001600160a01b03163314610d7157600080fd5b6001600160a01b038316610dc75760405162461bcd60e51b815260206004820181905260248201527f5455494e2045524332303a206d696e7420746f207a65726f20616464726573736044820152606401610475565b6001600160a01b038316600090815260056020526040902054821115610e2f5760405162461bcd60e51b815260206004820152601b60248201527f6275726e20616d6f756e7420657863656564732062616c616e636500000000006044820152606401610475565b60017f000000000000000000000000000000000000000000000000000000000000000014808015610e64575060035460005411155b15610e7857610e738484611121565b610e99565b80158015610e8a575060045460005411155b15610cc857610e738484611121565b60405183815260009033906000805160206113578339815191529060200161081f565b60006001600160a01b038316610f145760405162461bcd60e51b815260206004820152601e60248201527f45524332303a20746f2061646472657373206973206e6f742076616c696400006044820152606401610475565b33600090815260056020526040902054821115610f435760405162461bcd60e51b8152600401610475906112da565b3360009081526005602052604081208054849290610f62908490611327565b90915550506001600160a01b03831660009081526005602052604081208054849290610f8f90849061133e565b90915550506040518281526001600160a01b038416903390600080516020611357833981519152906020016104e7565b6000600454600354610b4b919061133e565b3360009081526006602090815260408083206001600160a01b038616845290915281208054839190839061100690849061133e565b90915550503360008181526006602090815260408083206001600160a01b038816808552908352928190205490519081529192917f8c5be1e5ebec7d5bd14f71427d1e84f3dd0314c0f7b2291e5b200ac8c7c3b92591016104e7565b80600080828254611073919061133e565b90915550506001600160a01b038216600090815260056020526040812080548392906110a090849061133e565b90915550505050565b6001600160a01b0382166000908152600660209081526040808320338452909152812080548392906110dc908490611327565b90915550506001600160a01b03821660009081526005602052604081208054839290611109908490611327565b92505081905550806000808282546110a09190611327565b6001600160a01b03821660009081526005602052604081208054839290611109908490611327565b60006020828403121561115b57600080fd5b5035919050565b600060208083528351808285015260005b8181101561118f57858101830151858201604001528201611173565b818111156111a1576000604083870101525b50601f01601f1916929092016040019392505050565b80356001600160a01b038116811461048757600080fd5b600080604083850312156111e157600080fd5b6111ea836111b7565b946020939093013593505050565b60006020828403121561120a57600080fd5b611213826111b7565b9392505050565b60008060006060848603121561122f57600080fd5b611238846111b7565b9250611246602085016111b7565b9150604084013590509250925092565b6000806040838503121561126957600080fd5b611272836111b7565b9150611280602084016111b7565b90509250929050565b60208082526031908201527f4552524f523a2076616c7565206c6573736572207468616e206f7220657175616040820152706c20746f20746f74616c20737570706c7960781b606082015260800190565b6020808252601b908201527f45524332303a20696e73756666696369656e742062616c616e63650000000000604082015260600190565b634e487b7160e01b600052601160045260246000fd5b60008282101561133957611339611311565b500390565b6000821982111561135157611351611311565b50019056feddf252ad1be2c89b69c2b068fc378daa952ba7f163c4a11628f55a4df523b3efa26469706673582212201c62421f5966609a6a40f04ad00b7efa390679122c9bcae09cef1450a23aff2c64736f6c634300080f0033",
    "linkReferences": {}
  },
  "methodIdentifiers": {
    "allowance(address,address)": "dd62ed3e",
    "approve(address,uint256)": "095ea7b3",
    "balanceOf(address)": "70a08231",
    "burn(address,uint256)": "9dc29fac",
    "burnFrom(address,uint256)": "79cc6790",
    "changeSupplyOnBsc(uint256)": "1ee1a56b",
    "changeSupplyOnEth(uint256)": "00035ed4",
    "decimals()": "313ce567",
    "decreaseApproval(address,uint256)": "66188463",
    "deploymentChainId()": "cd0d0096",
    "getChainMaxSupply()": "791c25ce",
    "increaseApproval(address,uint256)": "d73dd623",
    "init_maxsupply_on_bsc()": "8b56a516",
    "init_maxsupply_on_eth()": "959566ce",
    "maxSupply()": "d5abeb01",
    "maxsupply_on_bsc()": "0418d7cb",
    "maxsupply_on_eth()": "15a40c05",
    "mint(address,uint256)": "40c10f19",
    "name()": "06fdde03",
    "owner()": "8da5cb5b",
    "pool()": "16f0115b",
    "setOwner(address)": "13af4035",
    "setPool(address)": "4437152a",
    "symbol()": "95d89b41",
    "totalSupply()": "18160ddd",
    "transfer(address,uint256)": "a9059cbb",
    "transferFrom(address,address,uint256)": "23b872dd"
  },
  "id": 21
}