{
  "abi": [
    {
      "inputs": [
        {
          "internalType": "address",
          "name": "_poolContract",
          "type": "address"
        }
      ],
      "stateMutability": "nonpayable",
      "type": "constructor"
    },
    {
      "anonymous": false,
      "inputs": [
        {
          "indexed": true,
          "internalType": "address",
          "name": "owner",
          "type": "address"
        },
        {
          "indexed": true,
          "internalType": "address",
          "name": "spender",
          "type": "address"
        },
        {
          "indexed": false,
          "internalType": "uint256",
          "name": "value",
          "type": "uint256"
        }
      ],
      "name": "Approval",
      "type": "event"
    },
    {
      "anonymous": false,
      "inputs": [
        {
          "indexed": true,
          "internalType": "address",
          "name": "from",
          "type": "address"
        },
        {
          "indexed": true,
          "internalType": "address",
          "name": "to",
          "type": "address"
        },
        {
          "indexed": false,
          "internalType": "uint256",
          "name": "value",
          "type": "uint256"
        }
      ],
      "name": "Transfer",
      "type": "event"
    },
    {
      "inputs": [
        {
          "internalType": "address",
          "name": "_owner",
          "type": "address"
        },
        {
          "internalType": "address",
          "name": "_spender",
          "type": "address"
        }
      ],
      "name": "allowance",
      "outputs": [
        {
          "internalType": "uint256",
          "name": "",
          "type": "uint256"
        }
      ],
      "stateMutability": "view",
      "type": "function"
    },
    {
      "inputs": [
        {
          "internalType": "address",
          "name": "_spender",
          "type": "address"
        },
        {
          "internalType": "uint256",
          "name": "_value",
          "type": "uint256"
        }
      ],
      "name": "approve",
      "outputs": [
        {
          "internalType": "bool",
          "name": "",
          "type": "bool"
        }
      ],
      "stateMutability": "nonpayable",
      "type": "function"
    },
    {
      "inputs": [
        {
          "internalType": "address",
          "name": "_owner",
          "type": "address"
        }
      ],
      "name": "balanceOf",
      "outputs": [
        {
          "internalType": "uint256",
          "name": "balance",
          "type": "uint256"
        }
      ],
      "stateMutability": "view",
      "type": "function"
    },
    {
      "inputs": [
        {
          "internalType": "address",
          "name": "account",
          "type": "address"
        },
        {
          "internalType": "uint256",
          "name": "amount",
          "type": "uint256"
        }
      ],
      "name": "burn",
      "outputs": [
        {
          "internalType": "bool",
          "name": "",
          "type": "bool"
        }
      ],
      "stateMutability": "nonpayable",
      "type": "function"
    },
    {
      "inputs": [
        {
          "internalType": "address",
          "name": "_from",
          "type": "address"
        },
        {
          "internalType": "uint256",
          "name": "_amount",
          "type": "uint256"
        }
      ],
      "name": "burnFrom",
      "outputs": [
        {
          "internalType": "bool",
          "name": "",
          "type": "bool"
        }
      ],
      "stateMutability": "nonpayable",
      "type": "function"
    },
    {
      "inputs": [
        {
          "internalType": "uint256",
          "name": "_new_maxsupply_on_bsc",
          "type": "uint256"
        }
      ],
      "name": "changeSupplyOnBsc",
      "outputs": [],
      "stateMutability": "nonpayable",
      "type": "function"
    },
    {
      "inputs": [
        {
          "internalType": "uint256",
          "name": "_new_maxsupply_on_eth",
          "type": "uint256"
        }
      ],
      "name": "changeSupplyOnEth",
      "outputs": [],
      "stateMutability": "nonpayable",
      "type": "function"
    },
    {
      "inputs": [],
      "name": "decimals",
      "outputs": [
        {
          "internalType": "uint8",
          "name": "",
          "type": "uint8"
        }
      ],
      "stateMutability": "view",
      "type": "function"
    },
    {
      "inputs": [
        {
          "internalType": "address",
          "name": "_spender",
          "type": "address"
        },
        {
          "internalType": "uint256",
          "name": "_subtractedValue",
          "type": "uint256"
        }
      ],
      "name": "decreaseApproval",
      "outputs": [
        {
          "internalType": "bool",
          "name": "",
          "type": "bool"
        }
      ],
      "stateMutability": "nonpayable",
      "type": "function"
    },
    {
      "inputs": [],
      "name": "deploymentChainId",
      "outputs": [
        {
          "internalType": "uint256",
          "name": "",
          "type": "uint256"
        }
      ],
      "stateMutability": "view",
      "type": "function"
    },
    {
      "inputs": [],
      "name": "getChainMaxSupply",
      "outputs": [
        {
          "internalType": "uint256",
          "name": "",
          "type": "uint256"
        }
      ],
      "stateMutability": "view",
      "type": "function"
    },
    {
      "inputs": [
        {
          "internalType": "address",
          "name": "_spender",
          "type": "address"
        },
        {
          "internalType": "uint256",
          "name": "_addedValue",
          "type": "uint256"
        }
      ],
      "name": "increaseApproval",
      "outputs": [
        {
          "internalType": "bool",
          "name": "",
          "type": "bool"
        }
      ],
      "stateMutability": "nonpayable",
      "type": "function"
    },
    {
      "inputs": [],
      "name": "init_maxsupply_on_bsc",
      "outputs": [
        {
          "internalType": "uint256",
          "name": "",
          "type": "uint256"
        }
      ],
      "stateMutability": "view",
      "type": "function"
    },
    {
      "inputs": [],
      "name": "init_maxsupply_on_eth",
      "outputs": [
        {
          "internalType": "uint256",
          "name": "",
          "type": "uint256"
        }
      ],
      "stateMutability": "view",
      "type": "function"
    },
    {
      "inputs": [],
      "name": "maxSupply",
      "outputs": [
        {
          "internalType": "uint256",
          "name": "",
          "type": "uint256"
        }
      ],
      "stateMutability": "view",
      "type": "function"
    },
    {
      "inputs": [],
      "name": "maxsupply_on_bsc",
      "outputs": [
        {
          "internalType": "uint256",
          "name": "",
          "type": "uint256"
        }
      ],
      "stateMutability": "view",
      "type": "function"
    },
    {
      "inputs": [],
      "name": "maxsupply_on_eth",
      "outputs": [
        {
          "internalType": "uint256",
          "name": "",
          "type": "uint256"
        }
      ],
      "stateMutability": "view",
      "type": "function"
    },
    {
      "inputs": [
        {
          "internalType": "address",
          "name": "account",
          "type": "address"
        },
        {
          "internalType": "uint256",
          "name": "amount",
          "type": "uint256"
        }
      ],
      "name": "mint",
      "outputs": [
        {
          "internalType": "bool",
          "name": "",
          "type": "bool"
        }
      ],
      "stateMutability": "nonpayable",
      "type": "function"
    },
    {
      "inputs": [],
      "name": "name",
      "outputs": [
        {
          "internalType": "string",
          "name": "",
          "type": "string"
        }
      ],
      "stateMutability": "view",
      "type": "function"
    },
    {
      "inputs": [],
      "name": "owner",
      "outputs": [
        {
          "internalType": "address",
          "name": "",
          "type": "address"
        }
      ],
      "stateMutability": "view",
      "type": "function"
    },
    {
      "inputs": [],
      "name": "pool",
      "outputs": [
        {
          "internalType": "address",
          "name": "",
          "type": "address"
        }
      ],
      "stateMutability": "view",
      "type": "function"
    },
    {
      "inputs": [
        {
          "internalType": "address",
          "name": "_surryWallet",
          "type": "address"
        }
      ],
      "name": "setOwner",
      "outputs": [],
      "stateMutability": "nonpayable",
      "type": "function"
    },
    {
      "inputs": [
        {
          "internalType": "address",
          "name": "_poolContract",
          "type": "address"
        }
      ],
      "name": "setPool",
      "outputs": [],
      "stateMutability": "nonpayable",
      "type": "function"
    },
    {
      "inputs": [],
      "name": "symbol",
      "outputs": [
        {
          "internalType": "string",
          "name": "",
          "type": "string"
        }
      ],
      "stateMutability": "view",
      "type": "function"
    },
    {
      "inputs": [],
      "name": "totalSupply",
      "outputs": [
        {
          "internalType": "uint256",
          "name": "",
          "type": "uint256"
        }
      ],
      "stateMutability": "view",
      "type": "function"
    },
    {
      "inputs": [
        {
          "internalType": "address",
          "name": "_to",
          "type": "address"
        },
        {
          "internalType": "uint256",
          "name": "_value",
          "type": "uint256"
        }
      ],
      "name": "transfer",
      "outputs": [
        {
          "internalType": "bool",
          "name": "",
          "type": "bool"
        }
      ],
      "stateMutability": "nonpayable",
      "type": "function"
    },
    {
      "inputs": [
        {
          "internalType": "address",
          "name": "_from",
          "type": "address"
        },
        {
          "internalType": "address",
          "name": "_to",
          "type": "address"
        },
        {
          "internalType": "uint256",
          "name": "_value",
          "type": "uint256"
        }
      ],
      "name": "transferFrom",
      "outputs": [
        {
          "internalType": "bool",
          "name": "",
          "type": "bool"
        }
      ],
      "stateMutability": "nonpayable",
      "type": "function"
    }
  ],
  "bytecode": {
    "object": "0x60a06040526b1027e72f1f128130880000006003556b06765c793fa10079d000000060045534801561003057600080fd5b5060405161142238038061142283398101604081905261004f916100e5565b46608081905260018054336001600160a01b031991821617909155600280549091166001600160a01b0384161790556101a48190036100b5576b1027e72f1f1281308800000060008181556001600160a01b0384168152600560205260409020556100de565b6b06765c793fa10079d000000060008181556001600160a01b0384168152600560205260409020555b5050610115565b6000602082840312156100f757600080fd5b81516001600160a01b038116811461010e57600080fd5b9392505050565b6080516112d661014c600039600081816103c60152818161081a01528181610a3d01528181610b860152610d5801526112d66000f3fe608060405234801561001057600080fd5b50600436106101a85760003560e01c806366188463116100f957806395d89b4111610097578063cd0d009611610071578063cd0d0096146103c1578063d5abeb01146103e8578063d73dd623146103f0578063dd62ed3e1461040357600080fd5b806395d89b411461037a5780639dc29fac1461039b578063a9059cbb146103ae57600080fd5b806379cc6790116100d357806379cc67901461032e5780638b56a516146103415780638da5cb5b14610354578063959566ce1461036757600080fd5b806366188463146102ea57806370a08231146102fd578063791c25ce1461032657600080fd5b806316f0115b1161016657806323b872dd1161014057806323b872dd14610297578063313ce567146102aa57806340c10f19146102c45780634437152a146102d757600080fd5b806316f0115b1461025057806318160ddd1461027b5780631ee1a56b1461028457600080fd5b8062035ed4146101ad5780630418d7cb146101c257806306fdde03146101de578063095ea7b31461021157806313af40351461023457806315a40c0514610247575b600080fd5b6101c06101bb36600461106e565b61043c565b005b6101cb60045481565b6040519081526020015b60405180910390f35b610204604051806040016040528060078152602001665475696e20763160c81b81525081565b6040516101d59190611087565b61022461021f3660046110f8565b610482565b60405190151581526020016101d5565b6101c0610242366004611122565b6104ee565b6101cb60035481565b600254610263906001600160a01b031681565b6040516001600160a01b0390911681526020016101d5565b6101cb60005481565b6101c061029236600461106e565b610527565b6102246102a5366004611144565b610564565b6102b2601281565b60405160ff90911681526020016101d5565b6102246102d23660046110f8565b6107a5565b6101c06102e5366004611122565b610925565b6102246102f83660046110f8565b61095e565b6101cb61030b366004611122565b6001600160a01b031660009081526005602052604090205490565b6101cb610a39565b61022461033c3660046110f8565b610a74565b6101cb6b06765c793fa10079d000000081565b600154610263906001600160a01b031681565b6101cb6b1027e72f1f1281308800000081565b61020460405180604001604052806002815260200161151560f21b81525081565b6102246103a93660046110f8565b610c7b565b6102246103bc3660046110f8565b610de1565b6101cb7f000000000000000000000000000000000000000000000000000000000000000081565b6101cb610ee4565b6102246103fe3660046110f8565b610ef6565b6101cb610411366004611180565b6001600160a01b03918216600090815260066020908152604080832093909416825291909152205490565b6001546001600160a01b0316331461045357600080fd5b806000541061047d5760405162461bcd60e51b8152600401610474906111b3565b60405180910390fd5b600355565b3360008181526006602090815260408083206001600160a01b038716808552925280832085905551919290917f8c5be1e5ebec7d5bd14f71427d1e84f3dd0314c0f7b2291e5b200ac8c7c3b925906104dd9086815260200190565b60405180910390a350600192915050565b6001546001600160a01b0316331461050557600080fd5b600180546001600160a01b0319166001600160a01b0392909216919091179055565b6001546001600160a01b0316331461053e57600080fd5b806000541061055f5760405162461bcd60e51b8152600401610474906111b3565b600455565b60006001600160a01b0384166105bc5760405162461bcd60e51b815260206004820181905260248201527f45524332303a2066726f6d2061646472657373206973206e6f742076616c69646044820152606401610474565b6001600160a01b0383166106125760405162461bcd60e51b815260206004820152601e60248201527f45524332303a20746f2061646472657373206973206e6f742076616c696400006044820152606401610474565b6001600160a01b03841660009081526005602052604090205482111561064a5760405162461bcd60e51b815260040161047490611204565b6001600160a01b03841660009081526006602090815260408083203384529091529020548211156106cc5760405162461bcd60e51b815260206004820152602660248201527f45524332303a207472616e736665722066726f6d2076616c7565206e6f7420616044820152651b1b1bddd95960d21b6064820152608401610474565b6001600160a01b0384166000908152600660209081526040808320338452909152812080548492906106ff908490611251565b90915550506001600160a01b0384166000908152600560205260408120805484929061072c908490611251565b90915550506001600160a01b03831660009081526005602052604081208054849290610759908490611268565b92505081905550826001600160a01b0316846001600160a01b03166000805160206112818339815191528460405161079391815260200190565b60405180910390a35060019392505050565b6001546000906001600160a01b031633146107bf57600080fd5b6001600160a01b0383166108155760405162461bcd60e51b815260206004820181905260248201527f5455494e2045524332303a206d696e7420746f207a65726f20616464726573736044820152606401610474565b6101a47f00000000000000000000000000000000000000000000000000000000000000001480801561084a5750600354600054105b1561085e576108598484610f87565b6108ec565b8015801561086f5750600454600054105b1561087e576108598484610f87565b60405162461bcd60e51b815260206004820152603c60248201527f4552524f523a206e6f7420726967687420636861696e206f7220617474656d7060448201527f74206d6f7265207468616e20636861696e206d617820737570706c79000000006064820152608401610474565b6040518381526001600160a01b038516906000906000805160206112818339815191529060200160405180910390a35060019392505050565b6001546001600160a01b0316331461093c57600080fd5b600280546001600160a01b0319166001600160a01b0392909216919091179055565b3360009081526006602090815260408083206001600160a01b0386168452909152812054808311156109b3573360009081526006602090815260408083206001600160a01b03881684529091528120556109e2565b6109bd8382611251565b3360009081526006602090815260408083206001600160a01b03891684529091529020555b3360008181526006602090815260408083206001600160a01b038916808552908352928190205490519081529192917f8c5be1e5ebec7d5bd14f71427d1e84f3dd0314c0f7b2291e5b200ac8c7c3b9259101610793565b60007f00000000000000000000000000000000000000000000000000000000000000006101a414610a6b575060045490565b6003545b905090565b60006001600160a01b038316610acc5760405162461bcd60e51b815260206004820181905260248201527f45524332303a2066726f6d2061646472657373206973206e6f742076616c69646044820152606401610474565b6001600160a01b038316600090815260056020526040902054821115610b045760405162461bcd60e51b815260040161047490611204565b6001600160a01b0383166000908152600660209081526040808320338452909152902054821115610b825760405162461bcd60e51b815260206004820152602260248201527f45524332303a206275726e2066726f6d2076616c7565206e6f7420616c6c6f77604482015261195960f21b6064820152608401610474565b60017f000000000000000000000000000000000000000000000000000000000000000014808015610bb7575060035460005411155b15610bcb57610bc68484610fce565b610c4f565b80158015610bdd575060045460005411155b15610bec57610bc68484610fce565b60405162461bcd60e51b815260206004820152603260248201527f4552524f523a206e6f7420726967687420636861696e206f72206578636565646044820152717320636861696e206d617820737570706c7960701b6064820152608401610474565b6040518381526000906001600160a01b0386169060008051602061128183398151915290602001610793565b6002546000906001600160a01b03163314610c9557600080fd5b6001600160a01b038316610ceb5760405162461bcd60e51b815260206004820181905260248201527f5455494e2045524332303a206d696e7420746f207a65726f20616464726573736044820152606401610474565b6001600160a01b038316600090815260056020526040902054821115610d535760405162461bcd60e51b815260206004820152601b60248201527f6275726e20616d6f756e7420657863656564732062616c616e636500000000006044820152606401610474565b6101a47f000000000000000000000000000000000000000000000000000000000000000014808015610d89575060035460005411155b15610d9d57610d988484611046565b610dbe565b80158015610daf575060045460005411155b15610bec57610d988484611046565b604051838152600090339060008051602061128183398151915290602001610793565b60006001600160a01b038316610e395760405162461bcd60e51b815260206004820152601e60248201527f45524332303a20746f2061646472657373206973206e6f742076616c696400006044820152606401610474565b33600090815260056020526040902054821115610e685760405162461bcd60e51b815260040161047490611204565b3360009081526005602052604081208054849290610e87908490611251565b90915550506001600160a01b03831660009081526005602052604081208054849290610eb4908490611268565b90915550506040518281526001600160a01b038416903390600080516020611281833981519152906020016104dd565b6000600454600354610a6f9190611268565b3360009081526006602090815260408083206001600160a01b0386168452909152812080548391908390610f2b908490611268565b90915550503360008181526006602090815260408083206001600160a01b038816808552908352928190205490519081529192917f8c5be1e5ebec7d5bd14f71427d1e84f3dd0314c0f7b2291e5b200ac8c7c3b92591016104dd565b80600080828254610f989190611268565b90915550506001600160a01b03821660009081526005602052604081208054839290610fc5908490611268565b90915550505050565b6001600160a01b038216600090815260066020908152604080832033845290915281208054839290611001908490611251565b90915550506001600160a01b0382166000908152600560205260408120805483929061102e908490611251565b9250508190555080600080828254610fc59190611251565b6001600160a01b0382166000908152600560205260408120805483929061102e908490611251565b60006020828403121561108057600080fd5b5035919050565b600060208083528351808285015260005b818110156110b457858101830151858201604001528201611098565b818111156110c6576000604083870101525b50601f01601f1916929092016040019392505050565b80356001600160a01b03811681146110f357600080fd5b919050565b6000806040838503121561110b57600080fd5b611114836110dc565b946020939093013593505050565b60006020828403121561113457600080fd5b61113d826110dc565b9392505050565b60008060006060848603121561115957600080fd5b611162846110dc565b9250611170602085016110dc565b9150604084013590509250925092565b6000806040838503121561119357600080fd5b61119c836110dc565b91506111aa602084016110dc565b90509250929050565b60208082526031908201527f4552524f523a2076616c7565206c6573736572207468616e206f7220657175616040820152706c20746f20746f74616c20737570706c7960781b606082015260800190565b6020808252601b908201527f45524332303a20696e73756666696369656e742062616c616e63650000000000604082015260600190565b634e487b7160e01b600052601160045260246000fd5b6000828210156112635761126361123b565b500390565b6000821982111561127b5761127b61123b565b50019056feddf252ad1be2c89b69c2b068fc378daa952ba7f163c4a11628f55a4df523b3efa2646970667358221220d749268303f2fbf0dd25f47481f4a6a3ed95231f72d694af5f269a2cc021845c64736f6c634300080f0033",
    "linkReferences": {}
  },
  "methodIdentifiers": {
    "allowance(address,address)": "dd62ed3e",
    "approve(address,uint256)": "095ea7b3",
    "balanceOf(address)": "70a08231",
    "burn(address,uint256)": "9dc29fac",
    "burnFrom(address,uint256)": "79cc6790",
    "changeSupplyOnBsc(uint256)": "1ee1a56b",
    "changeSupplyOnEth(uint256)": "00035ed4",
    "decimals()": "313ce567",
    "decreaseApproval(address,uint256)": "66188463",
    "deploymentChainId()": "cd0d0096",
    "getChainMaxSupply()": "791c25ce",
    "increaseApproval(address,uint256)": "d73dd623",
    "init_maxsupply_on_bsc()": "8b56a516",
    "init_maxsupply_on_eth()": "959566ce",
    "maxSupply()": "d5abeb01",
    "maxsupply_on_bsc()": "0418d7cb",
    "maxsupply_on_eth()": "15a40c05",
    "mint(address,uint256)": "40c10f19",
    "name()": "06fdde03",
    "owner()": "8da5cb5b",
    "pool()": "16f0115b",
    "setOwner(address)": "13af4035",
    "setPool(address)": "4437152a",
    "symbol()": "95d89b41",
    "totalSupply()": "18160ddd",
    "transfer(address,uint256)": "a9059cbb",
    "transferFrom(address,address,uint256)": "23b872dd"
  },
  "id": 15
}